{
	"contracts/DexToken.sol": {
		"DexToken": {
			"abi": [
				{
					"inputs": [],
					"stateMutability": "nonpayable",
					"type": "constructor"
				},
				{
					"anonymous": false,
					"inputs": [
						{
							"indexed": true,
							"internalType": "address",
							"name": "owner",
							"type": "address"
						},
						{
							"indexed": true,
							"internalType": "address",
							"name": "spender",
							"type": "address"
						},
						{
							"indexed": false,
							"internalType": "uint256",
							"name": "value",
							"type": "uint256"
						}
					],
					"name": "Approval",
					"type": "event"
				},
				{
					"anonymous": false,
					"inputs": [
						{
							"indexed": true,
							"internalType": "address",
							"name": "previousOwner",
							"type": "address"
						},
						{
							"indexed": true,
							"internalType": "address",
							"name": "newOwner",
							"type": "address"
						}
					],
					"name": "OwnershipTransferred",
					"type": "event"
				},
				{
					"anonymous": false,
					"inputs": [
						{
							"indexed": false,
							"internalType": "address",
							"name": "account",
							"type": "address"
						}
					],
					"name": "Paused",
					"type": "event"
				},
				{
					"anonymous": false,
					"inputs": [
						{
							"indexed": true,
							"internalType": "address",
							"name": "from",
							"type": "address"
						},
						{
							"indexed": true,
							"internalType": "address",
							"name": "to",
							"type": "address"
						},
						{
							"indexed": false,
							"internalType": "uint256",
							"name": "value",
							"type": "uint256"
						}
					],
					"name": "Transfer",
					"type": "event"
				},
				{
					"anonymous": false,
					"inputs": [
						{
							"indexed": false,
							"internalType": "address",
							"name": "account",
							"type": "address"
						}
					],
					"name": "Unpaused",
					"type": "event"
				},
				{
					"inputs": [
						{
							"internalType": "address",
							"name": "owner",
							"type": "address"
						},
						{
							"internalType": "address",
							"name": "spender",
							"type": "address"
						}
					],
					"name": "allowance",
					"outputs": [
						{
							"internalType": "uint256",
							"name": "",
							"type": "uint256"
						}
					],
					"stateMutability": "view",
					"type": "function"
				},
				{
					"inputs": [
						{
							"internalType": "address",
							"name": "spender",
							"type": "address"
						},
						{
							"internalType": "uint256",
							"name": "amount",
							"type": "uint256"
						}
					],
					"name": "approve",
					"outputs": [
						{
							"internalType": "bool",
							"name": "",
							"type": "bool"
						}
					],
					"stateMutability": "nonpayable",
					"type": "function"
				},
				{
					"inputs": [
						{
							"internalType": "address",
							"name": "account",
							"type": "address"
						}
					],
					"name": "balanceOf",
					"outputs": [
						{
							"internalType": "uint256",
							"name": "",
							"type": "uint256"
						}
					],
					"stateMutability": "view",
					"type": "function"
				},
				{
					"inputs": [
						{
							"internalType": "uint256",
							"name": "amount",
							"type": "uint256"
						}
					],
					"name": "burn",
					"outputs": [],
					"stateMutability": "nonpayable",
					"type": "function"
				},
				{
					"inputs": [
						{
							"internalType": "address",
							"name": "account",
							"type": "address"
						},
						{
							"internalType": "uint256",
							"name": "amount",
							"type": "uint256"
						}
					],
					"name": "burnFrom",
					"outputs": [],
					"stateMutability": "nonpayable",
					"type": "function"
				},
				{
					"inputs": [],
					"name": "burnRate",
					"outputs": [
						{
							"internalType": "uint256",
							"name": "",
							"type": "uint256"
						}
					],
					"stateMutability": "view",
					"type": "function"
				},
				{
					"inputs": [],
					"name": "decimals",
					"outputs": [
						{
							"internalType": "uint8",
							"name": "",
							"type": "uint8"
						}
					],
					"stateMutability": "view",
					"type": "function"
				},
				{
					"inputs": [
						{
							"internalType": "address",
							"name": "spender",
							"type": "address"
						},
						{
							"internalType": "uint256",
							"name": "subtractedValue",
							"type": "uint256"
						}
					],
					"name": "decreaseAllowance",
					"outputs": [
						{
							"internalType": "bool",
							"name": "",
							"type": "bool"
						}
					],
					"stateMutability": "nonpayable",
					"type": "function"
				},
				{
					"inputs": [
						{
							"internalType": "address",
							"name": "spender",
							"type": "address"
						},
						{
							"internalType": "uint256",
							"name": "addedValue",
							"type": "uint256"
						}
					],
					"name": "increaseAllowance",
					"outputs": [
						{
							"internalType": "bool",
							"name": "",
							"type": "bool"
						}
					],
					"stateMutability": "nonpayable",
					"type": "function"
				},
				{
					"inputs": [],
					"name": "name",
					"outputs": [
						{
							"internalType": "string",
							"name": "",
							"type": "string"
						}
					],
					"stateMutability": "view",
					"type": "function"
				},
				{
					"inputs": [],
					"name": "owner",
					"outputs": [
						{
							"internalType": "address",
							"name": "",
							"type": "address"
						}
					],
					"stateMutability": "view",
					"type": "function"
				},
				{
					"inputs": [],
					"name": "pause",
					"outputs": [],
					"stateMutability": "nonpayable",
					"type": "function"
				},
				{
					"inputs": [],
					"name": "paused",
					"outputs": [
						{
							"internalType": "bool",
							"name": "",
							"type": "bool"
						}
					],
					"stateMutability": "view",
					"type": "function"
				},
				{
					"inputs": [],
					"name": "renounceOwnership",
					"outputs": [],
					"stateMutability": "nonpayable",
					"type": "function"
				},
				{
					"inputs": [
						{
							"internalType": "uint256",
							"name": "newBurnRate",
							"type": "uint256"
						}
					],
					"name": "setBurnRate",
					"outputs": [],
					"stateMutability": "nonpayable",
					"type": "function"
				},
				{
					"inputs": [],
					"name": "symbol",
					"outputs": [
						{
							"internalType": "string",
							"name": "",
							"type": "string"
						}
					],
					"stateMutability": "view",
					"type": "function"
				},
				{
					"inputs": [],
					"name": "totalSupply",
					"outputs": [
						{
							"internalType": "uint256",
							"name": "",
							"type": "uint256"
						}
					],
					"stateMutability": "view",
					"type": "function"
				},
				{
					"inputs": [
						{
							"internalType": "address",
							"name": "to",
							"type": "address"
						},
						{
							"internalType": "uint256",
							"name": "amount",
							"type": "uint256"
						}
					],
					"name": "transfer",
					"outputs": [
						{
							"internalType": "bool",
							"name": "",
							"type": "bool"
						}
					],
					"stateMutability": "nonpayable",
					"type": "function"
				},
				{
					"inputs": [
						{
							"internalType": "address",
							"name": "from",
							"type": "address"
						},
						{
							"internalType": "address",
							"name": "to",
							"type": "address"
						},
						{
							"internalType": "uint256",
							"name": "amount",
							"type": "uint256"
						}
					],
					"name": "transferFrom",
					"outputs": [
						{
							"internalType": "bool",
							"name": "",
							"type": "bool"
						}
					],
					"stateMutability": "nonpayable",
					"type": "function"
				},
				{
					"inputs": [
						{
							"internalType": "address",
							"name": "newOwner",
							"type": "address"
						}
					],
					"name": "transferOwnership",
					"outputs": [],
					"stateMutability": "nonpayable",
					"type": "function"
				},
				{
					"inputs": [],
					"name": "unpause",
					"outputs": [],
					"stateMutability": "nonpayable",
					"type": "function"
				}
			],
			"devdoc": {
				"kind": "dev",
				"methods": {
					"allowance(address,address)": {
						"details": "See {IERC20-allowance}."
					},
					"approve(address,uint256)": {
						"details": "See {IERC20-approve}. NOTE: If `amount` is the maximum `uint256`, the allowance is not updated on `transferFrom`. This is semantically equivalent to an infinite approval. Requirements: - `spender` cannot be the zero address."
					},
					"balanceOf(address)": {
						"details": "See {IERC20-balanceOf}."
					},
					"burn(uint256)": {
						"details": "Destroys `amount` tokens from the caller. See {ERC20-_burn}."
					},
					"burnFrom(address,uint256)": {
						"details": "Destroys `amount` tokens from `account`, deducting from the caller's allowance. See {ERC20-_burn} and {ERC20-allowance}. Requirements: - the caller must have allowance for ``accounts``'s tokens of at least `amount`."
					},
					"decimals()": {
						"details": "Returns the number of decimals used to get its user representation. For example, if `decimals` equals `2`, a balance of `505` tokens should be displayed to a user as `5.05` (`505 / 10 ** 2`). Tokens usually opt for a value of 18, imitating the relationship between Ether and Wei. This is the value {ERC20} uses, unless this function is overridden; NOTE: This information is only used for _display_ purposes: it in no way affects any of the arithmetic of the contract, including {IERC20-balanceOf} and {IERC20-transfer}."
					},
					"decreaseAllowance(address,uint256)": {
						"details": "Atomically decreases the allowance granted to `spender` by the caller. This is an alternative to {approve} that can be used as a mitigation for problems described in {IERC20-approve}. Emits an {Approval} event indicating the updated allowance. Requirements: - `spender` cannot be the zero address. - `spender` must have allowance for the caller of at least `subtractedValue`."
					},
					"increaseAllowance(address,uint256)": {
						"details": "Atomically increases the allowance granted to `spender` by the caller. This is an alternative to {approve} that can be used as a mitigation for problems described in {IERC20-approve}. Emits an {Approval} event indicating the updated allowance. Requirements: - `spender` cannot be the zero address."
					},
					"name()": {
						"details": "Returns the name of the token."
					},
					"owner()": {
						"details": "Returns the address of the current owner."
					},
					"paused()": {
						"details": "Returns true if the contract is paused, and false otherwise."
					},
					"renounceOwnership()": {
						"details": "Leaves the contract without owner. It will not be possible to call `onlyOwner` functions anymore. Can only be called by the current owner. NOTE: Renouncing ownership will leave the contract without an owner, thereby removing any functionality that is only available to the owner."
					},
					"symbol()": {
						"details": "Returns the symbol of the token, usually a shorter version of the name."
					},
					"totalSupply()": {
						"details": "See {IERC20-totalSupply}."
					},
					"transfer(address,uint256)": {
						"details": "See {IERC20-transfer}. Requirements: - `to` cannot be the zero address. - the caller must have a balance of at least `amount`."
					},
					"transferFrom(address,address,uint256)": {
						"details": "See {IERC20-transferFrom}. Emits an {Approval} event indicating the updated allowance. This is not required by the EIP. See the note at the beginning of {ERC20}. NOTE: Does not update the allowance if the current allowance is the maximum `uint256`. Requirements: - `from` and `to` cannot be the zero address. - `from` must have a balance of at least `amount`. - the caller must have allowance for ``from``'s tokens of at least `amount`."
					},
					"transferOwnership(address)": {
						"details": "Transfers ownership of the contract to a new account (`newOwner`). Can only be called by the current owner."
					}
				},
				"version": 1
			},
			"evm": {
				"assembly": "    /* \"contracts/DexToken.sol\":221:1846  contract DexToken is ERC20, ERC20Burnable, Pausable, Ownable {... */\n  mstore(0x40, 0x80)\n    /* \"contracts/DexToken.sol\":319:463  constructor() ERC20(\"DexToken\", \"DEX\") {... */\n  callvalue\n  dup1\n  iszero\n  tag_1\n  jumpi\n  0x00\n  dup1\n  revert\ntag_1:\n  pop\n    /* \"contracts/token/ERC20/ERC20.sol\":758:874  constructor(string memory name_, string memory symbol_) {... */\n  mload(0x40)\n  dup1\n  0x40\n  add\n  0x40\n  mstore\n  dup1\n  0x08\n  dup2\n  mstore\n  0x20\n  add\n  shl(0xc1, 0x2232bc2a37b5b2b7)\n  dup2\n  mstore\n  pop\n  mload(0x40)\n  dup1\n  0x40\n  add\n  0x40\n  mstore\n  dup1\n  0x03\n  dup2\n  mstore\n  0x20\n  add\n  shl(0xeb, 0x0888ab)\n  dup2\n  mstore\n  pop\n    /* \"contracts/token/ERC20/ERC20.sol\":833:838  name_ */\n  dup2\n    /* \"contracts/token/ERC20/ERC20.sol\":825:830  _name */\n  0x03\n    /* \"contracts/token/ERC20/ERC20.sol\":825:838  _name = name_ */\n  swap1\n  dup2\n  tag_7\n  swap2\n  swap1\n  tag_8\n  jump\t// in\ntag_7:\n  pop\n    /* \"contracts/token/ERC20/ERC20.sol\":849:856  _symbol */\n  0x04\n    /* \"contracts/token/ERC20/ERC20.sol\":849:866  _symbol = symbol_ */\n  tag_9\n    /* \"contracts/token/ERC20/ERC20.sol\":859:866  symbol_ */\n  dup3\n    /* \"contracts/token/ERC20/ERC20.sol\":849:856  _symbol */\n  dup3\n    /* \"contracts/token/ERC20/ERC20.sol\":849:866  _symbol = symbol_ */\n  tag_8\n  jump\t// in\ntag_9:\n  pop\n  pop\n    /* \"contracts/security/Pausable.sol\":505:512  _paused */\n  0x05\n    /* \"contracts/security/Pausable.sol\":505:520  _paused = false */\n  dup1\n  sload\n  not(0xff)\n  and\n  swap1\n  sstore\n  pop\n    /* \"contracts/access/Ownable.sol\":385:417  _transferOwnership(_msgSender()) */\n  tag_12\n    /* \"contracts/utils/Context.sol\":173:183  msg.sender */\n  caller\n    /* \"contracts/access/Ownable.sol\":385:403  _transferOwnership */\n  tag_15\n    /* \"contracts/access/Ownable.sol\":385:417  _transferOwnership(_msgSender()) */\n  jump\t// in\ntag_12:\n    /* \"contracts/DexToken.sol\":369:401  _mint(msg.sender, 50 * 10 ** 27) */\n  tag_17\n    /* \"contracts/DexToken.sol\":375:385  msg.sender */\n  caller\n    /* \"contracts/DexToken.sol\":387:400  50 * 10 ** 27 */\n  0xa18f07d736b90be550000000\n    /* \"contracts/DexToken.sol\":369:374  _mint */\n  tag_18\n    /* \"contracts/DexToken.sol\":369:401  _mint(msg.sender, 50 * 10 ** 27) */\n  jump\t// in\ntag_17:\n    /* \"contracts/DexToken.sol\":423:424  3 */\n  0x03\n    /* \"contracts/DexToken.sol\":412:420  burnRate */\n  0x06\n    /* \"contracts/DexToken.sol\":412:424  burnRate = 3 */\n  sstore\n    /* \"contracts/DexToken.sol\":221:1846  contract DexToken is ERC20, ERC20Burnable, Pausable, Ownable {... */\n  jump(tag_54)\n    /* \"contracts/access/Ownable.sol\":1931:2122  function _transferOwnership(address newOwner) internal virtual {... */\ntag_15:\n    /* \"contracts/access/Ownable.sol\":2024:2030  _owner */\n  0x05\n  dup1\n  sload\n  sub(shl(0xa0, 0x01), 0x01)\n    /* \"contracts/access/Ownable.sol\":2041:2058  _owner = newOwner */\n  dup4\n  dup2\n  and\n    /* \"contracts/access/Ownable.sol\":2024:2030  _owner */\n  0x0100\n    /* \"contracts/access/Ownable.sol\":2041:2058  _owner = newOwner */\n  dup2\n  dup2\n  mul\n  not(sub(shl(0xa8, 0x01), 0x0100))\n  dup6\n  and\n  or\n  swap1\n  swap5\n  sstore\n    /* \"contracts/access/Ownable.sol\":2074:2114  OwnershipTransferred(oldOwner, newOwner) */\n  mload(0x40)\n    /* \"contracts/access/Ownable.sol\":2024:2030  _owner */\n  swap4\n  swap1\n  swap3\n  div\n  and\n  swap2\n  dup3\n  swap1\n    /* \"contracts/access/Ownable.sol\":2074:2114  OwnershipTransferred(oldOwner, newOwner) */\n  0x8be0079c531659141344cd1fd0a4f28419497f9722a3daafe3b4186f6b6457e0\n  swap1\n    /* \"contracts/access/Ownable.sol\":2005:2021  address oldOwner */\n  0x00\n  swap1\n    /* \"contracts/access/Ownable.sol\":2074:2114  OwnershipTransferred(oldOwner, newOwner) */\n  log3\n    /* \"contracts/access/Ownable.sol\":1994:2122  {... */\n  pop\n    /* \"contracts/access/Ownable.sol\":1931:2122  function _transferOwnership(address newOwner) internal virtual {... */\n  pop\n  jump\t// out\n    /* \"contracts/token/ERC20/ERC20.sol\":7554:8102  function _mint(address account, uint256 amount) internal virtual {... */\ntag_18:\n  sub(shl(0xa0, 0x01), 0x01)\n    /* \"contracts/token/ERC20/ERC20.sol\":7638:7659  account != address(0) */\n  dup3\n  and\n    /* \"contracts/token/ERC20/ERC20.sol\":7630:7695  require(account != address(0), \"ERC20: mint to the zero address\") */\n  tag_23\n  jumpi\n  mload(0x40)\n  shl(0xe5, 0x461bcd)\n  dup2\n  mstore\n    /* \"#utility.yul\":2937:2939   */\n  0x20\n    /* \"contracts/token/ERC20/ERC20.sol\":7630:7695  require(account != address(0), \"ERC20: mint to the zero address\") */\n  0x04\n  dup3\n  add\n    /* \"#utility.yul\":2919:2940   */\n  mstore\n    /* \"#utility.yul\":2976:2978   */\n  0x1f\n    /* \"#utility.yul\":2956:2974   */\n  0x24\n  dup3\n  add\n    /* \"#utility.yul\":2949:2979   */\n  mstore\n    /* \"#utility.yul\":3015:3048   */\n  0x45524332303a206d696e7420746f20746865207a65726f206164647265737300\n    /* \"#utility.yul\":2995:3013   */\n  0x44\n  dup3\n  add\n    /* \"#utility.yul\":2988:3049   */\n  mstore\n    /* \"#utility.yul\":3066:3084   */\n  0x64\n  add\n    /* \"contracts/token/ERC20/ERC20.sol\":7630:7695  require(account != address(0), \"ERC20: mint to the zero address\") */\ntag_24:\n  mload(0x40)\n  dup1\n  swap2\n  sub\n  swap1\n  revert\ntag_23:\n    /* \"contracts/token/ERC20/ERC20.sol\":7708:7757  _beforeTokenTransfer(address(0), account, amount) */\n  tag_26\n    /* \"contracts/token/ERC20/ERC20.sol\":7737:7738  0 */\n  0x00\n    /* \"contracts/token/ERC20/ERC20.sol\":7741:7748  account */\n  dup4\n    /* \"contracts/token/ERC20/ERC20.sol\":7750:7756  amount */\n  dup4\n    /* \"contracts/token/ERC20/ERC20.sol\":7708:7728  _beforeTokenTransfer */\n  tag_27\n    /* \"contracts/token/ERC20/ERC20.sol\":7708:7757  _beforeTokenTransfer(address(0), account, amount) */\n  jump\t// in\ntag_26:\n    /* \"contracts/token/ERC20/ERC20.sol\":7786:7792  amount */\n  dup1\n    /* \"contracts/token/ERC20/ERC20.sol\":7770:7782  _totalSupply */\n  0x02\n  0x00\n    /* \"contracts/token/ERC20/ERC20.sol\":7770:7792  _totalSupply += amount */\n  dup3\n  dup3\n  sload\n  tag_28\n  swap2\n  swap1\n  tag_29\n  jump\t// in\ntag_28:\n  swap1\n  swap2\n  sstore\n  pop\n  pop\n  sub(shl(0xa0, 0x01), 0x01)\n    /* \"contracts/token/ERC20/ERC20.sol\":7941:7959  _balances[account] */\n  dup3\n  and\n    /* \"contracts/token/ERC20/ERC20.sol\":7941:7950  _balances */\n  0x00\n    /* \"contracts/token/ERC20/ERC20.sol\":7941:7959  _balances[account] */\n  dup2\n  dup2\n  mstore\n  0x20\n  dup2\n  dup2\n  mstore\n  0x40\n  dup1\n  dup4\n  keccak256\n    /* \"contracts/token/ERC20/ERC20.sol\":7941:7969  _balances[account] += amount */\n  dup1\n  sload\n  dup7\n  add\n  swap1\n  sstore\n    /* \"contracts/token/ERC20/ERC20.sol\":7996:8033  Transfer(address(0), account, amount) */\n  mload\n    /* \"#utility.yul\":3468:3493   */\n  dup5\n  dup2\n  mstore\n    /* \"contracts/token/ERC20/ERC20.sol\":7996:8033  Transfer(address(0), account, amount) */\n  0xddf252ad1be2c89b69c2b068fc378daa952ba7f163c4a11628f55a4df523b3ef\n  swap2\n    /* \"#utility.yul\":3441:3459   */\n  add\n    /* \"contracts/token/ERC20/ERC20.sol\":7996:8033  Transfer(address(0), account, amount) */\n  mload(0x40)\n  dup1\n  swap2\n  sub\n  swap1\n  log3\n    /* \"contracts/token/ERC20/ERC20.sol\":7554:8102  function _mint(address account, uint256 amount) internal virtual {... */\n  pop\n  pop\n  jump\t// out\n    /* \"contracts/DexToken.sol\":614:813  function _beforeTokenTransfer(address from, address to, uint256 amount)... */\ntag_27:\n    /* \"contracts/security/Pausable.sol\":759:778  _requireNotPaused() */\n  tag_35\n    /* \"contracts/security/Pausable.sol\":759:776  _requireNotPaused */\n  tag_36\n    /* \"contracts/security/Pausable.sol\":759:778  _requireNotPaused() */\n  jump\t// in\ntag_35:\n    /* \"contracts/DexToken.sol\":761:805  super._beforeTokenTransfer(from, to, amount) */\n  tag_38\n    /* \"contracts/DexToken.sol\":788:792  from */\n  dup4\n    /* \"contracts/DexToken.sol\":794:796  to */\n  dup4\n    /* \"contracts/DexToken.sol\":798:804  amount */\n  dup4\n    /* \"contracts/DexToken.sol\":761:787  super._beforeTokenTransfer */\n  or(tag_0_104, shl(0x20, tag_38))\n    /* \"contracts/DexToken.sol\":761:805  super._beforeTokenTransfer(from, to, amount) */\n  0x20\n  shr\n  jump\t// in\ntag_38:\n    /* \"contracts/DexToken.sol\":614:813  function _beforeTokenTransfer(address from, address to, uint256 amount)... */\n  pop\n  pop\n  pop\n  jump\t// out\n    /* \"contracts/security/Pausable.sol\":1313:1421  function _requireNotPaused() internal view virtual {... */\ntag_36:\n    /* \"contracts/security/Pausable.sol\":1225:1232  _paused */\n  and(0xff, sload(0x05))\n    /* \"contracts/security/Pausable.sol\":1383:1392  !paused() */\n  iszero\n    /* \"contracts/security/Pausable.sol\":1375:1413  require(!paused(), \"Pausable: paused\") */\n  tag_44\n  jumpi\n  mload(0x40)\n  shl(0xe5, 0x461bcd)\n  dup2\n  mstore\n    /* \"#utility.yul\":3706:3708   */\n  0x20\n    /* \"contracts/security/Pausable.sol\":1375:1413  require(!paused(), \"Pausable: paused\") */\n  0x04\n  dup3\n  add\n    /* \"#utility.yul\":3688:3709   */\n  mstore\n    /* \"#utility.yul\":3745:3747   */\n  0x10\n    /* \"#utility.yul\":3725:3743   */\n  0x24\n  dup3\n  add\n    /* \"#utility.yul\":3718:3748   */\n  mstore\n  shl(0x82, 0x14185d5cd8589b194e881c185d5cd959)\n    /* \"#utility.yul\":3764:3782   */\n  0x44\n  dup3\n  add\n    /* \"#utility.yul\":3757:3803   */\n  mstore\n    /* \"#utility.yul\":3820:3838   */\n  0x64\n  add\n    /* \"contracts/security/Pausable.sol\":1375:1413  require(!paused(), \"Pausable: paused\") */\n  tag_24\n    /* \"#utility.yul\":3504:3844   */\n  jump\n    /* \"contracts/security/Pausable.sol\":1375:1413  require(!paused(), \"Pausable: paused\") */\ntag_44:\n    /* \"contracts/security/Pausable.sol\":1313:1421  function _requireNotPaused() internal view virtual {... */\n  jump\t// out\n    /* \"#utility.yul\":14:141   */\ntag_49:\n    /* \"#utility.yul\":75:85   */\n  0x4e487b71\n    /* \"#utility.yul\":70:73   */\n  0xe0\n    /* \"#utility.yul\":66:86   */\n  shl\n    /* \"#utility.yul\":63:64   */\n  0x00\n    /* \"#utility.yul\":56:87   */\n  mstore\n    /* \"#utility.yul\":106:110   */\n  0x41\n    /* \"#utility.yul\":103:104   */\n  0x04\n    /* \"#utility.yul\":96:111   */\n  mstore\n    /* \"#utility.yul\":130:134   */\n  0x24\n    /* \"#utility.yul\":127:128   */\n  0x00\n    /* \"#utility.yul\":120:135   */\n  revert\n    /* \"#utility.yul\":146:526   */\ntag_50:\n    /* \"#utility.yul\":225:226   */\n  0x01\n    /* \"#utility.yul\":221:233   */\n  dup2\n  dup2\n  shr\n  swap1\n    /* \"#utility.yul\":268:280   */\n  dup3\n  and\n  dup1\n    /* \"#utility.yul\":289:350   */\n  tag_57\n  jumpi\n    /* \"#utility.yul\":343:347   */\n  0x7f\n    /* \"#utility.yul\":335:341   */\n  dup3\n    /* \"#utility.yul\":331:348   */\n  and\n    /* \"#utility.yul\":321:348   */\n  swap2\n  pop\n    /* \"#utility.yul\":289:350   */\ntag_57:\n    /* \"#utility.yul\":396:398   */\n  0x20\n    /* \"#utility.yul\":388:394   */\n  dup3\n    /* \"#utility.yul\":385:399   */\n  lt\n    /* \"#utility.yul\":365:383   */\n  dup2\n    /* \"#utility.yul\":362:400   */\n  sub\n    /* \"#utility.yul\":359:520   */\n  tag_58\n  jumpi\n    /* \"#utility.yul\":442:452   */\n  0x4e487b71\n    /* \"#utility.yul\":437:440   */\n  0xe0\n    /* \"#utility.yul\":433:453   */\n  shl\n    /* \"#utility.yul\":430:431   */\n  0x00\n    /* \"#utility.yul\":423:454   */\n  mstore\n    /* \"#utility.yul\":477:481   */\n  0x22\n    /* \"#utility.yul\":474:475   */\n  0x04\n    /* \"#utility.yul\":467:482   */\n  mstore\n    /* \"#utility.yul\":505:509   */\n  0x24\n    /* \"#utility.yul\":502:503   */\n  0x00\n    /* \"#utility.yul\":495:510   */\n  revert\n    /* \"#utility.yul\":359:520   */\ntag_58:\n  pop\n    /* \"#utility.yul\":146:526   */\n  swap2\n  swap1\n  pop\n  jump\t// out\n    /* \"#utility.yul\":657:1202   */\ntag_52:\n    /* \"#utility.yul\":759:761   */\n  0x1f\n    /* \"#utility.yul\":754:757   */\n  dup3\n    /* \"#utility.yul\":751:762   */\n  gt\n    /* \"#utility.yul\":748:1196   */\n  iszero\n  tag_38\n  jumpi\n    /* \"#utility.yul\":795:796   */\n  0x00\n    /* \"#utility.yul\":820:825   */\n  dup2\n    /* \"#utility.yul\":816:818   */\n  dup2\n    /* \"#utility.yul\":809:826   */\n  mstore\n    /* \"#utility.yul\":865:869   */\n  0x20\n    /* \"#utility.yul\":861:863   */\n  dup2\n    /* \"#utility.yul\":851:870   */\n  keccak256\n    /* \"#utility.yul\":935:937   */\n  0x1f\n    /* \"#utility.yul\":923:933   */\n  dup6\n    /* \"#utility.yul\":919:938   */\n  add\n    /* \"#utility.yul\":916:917   */\n  0x05\n    /* \"#utility.yul\":912:939   */\n  shr\n    /* \"#utility.yul\":906:910   */\n  dup2\n    /* \"#utility.yul\":902:940   */\n  add\n    /* \"#utility.yul\":971:975   */\n  0x20\n    /* \"#utility.yul\":959:969   */\n  dup7\n    /* \"#utility.yul\":956:976   */\n  lt\n    /* \"#utility.yul\":953:1000   */\n  iszero\n  tag_62\n  jumpi\n  pop\n    /* \"#utility.yul\":994:998   */\n  dup1\n    /* \"#utility.yul\":953:1000   */\ntag_62:\n    /* \"#utility.yul\":1049:1051   */\n  0x1f\n    /* \"#utility.yul\":1044:1047   */\n  dup6\n    /* \"#utility.yul\":1040:1052   */\n  add\n    /* \"#utility.yul\":1037:1038   */\n  0x05\n    /* \"#utility.yul\":1033:1053   */\n  shr\n    /* \"#utility.yul\":1027:1031   */\n  dup3\n    /* \"#utility.yul\":1023:1054   */\n  add\n    /* \"#utility.yul\":1013:1054   */\n  swap2\n  pop\n    /* \"#utility.yul\":1104:1186   */\ntag_63:\n    /* \"#utility.yul\":1122:1124   */\n  dup2\n    /* \"#utility.yul\":1115:1120   */\n  dup2\n    /* \"#utility.yul\":1112:1125   */\n  lt\n    /* \"#utility.yul\":1104:1186   */\n  iszero\n  tag_65\n  jumpi\n    /* \"#utility.yul\":1167:1184   */\n  dup3\n  dup2\n  sstore\n    /* \"#utility.yul\":1148:1149   */\n  0x01\n    /* \"#utility.yul\":1137:1150   */\n  add\n    /* \"#utility.yul\":1104:1186   */\n  jump(tag_63)\ntag_65:\n    /* \"#utility.yul\":1108:1111   */\n  pop\n  pop\n  pop\n    /* \"#utility.yul\":657:1202   */\n  pop\n  pop\n  pop\n  jump\t// out\n    /* \"#utility.yul\":1378:2730   */\ntag_8:\n    /* \"#utility.yul\":1498:1508   */\n  dup2\n  mload\n  sub(shl(0x40, 0x01), 0x01)\n    /* \"#utility.yul\":1520:1550   */\n  dup2\n  gt\n    /* \"#utility.yul\":1517:1573   */\n  iszero\n  tag_69\n  jumpi\n    /* \"#utility.yul\":1553:1571   */\n  tag_69\n  tag_49\n  jump\t// in\ntag_69:\n    /* \"#utility.yul\":1582:1679   */\n  tag_70\n    /* \"#utility.yul\":1672:1678   */\n  dup2\n    /* \"#utility.yul\":1632:1670   */\n  tag_71\n    /* \"#utility.yul\":1664:1668   */\n  dup5\n    /* \"#utility.yul\":1658:1669   */\n  sload\n    /* \"#utility.yul\":1632:1670   */\n  tag_50\n  jump\t// in\ntag_71:\n    /* \"#utility.yul\":1626:1630   */\n  dup5\n    /* \"#utility.yul\":1582:1679   */\n  tag_52\n  jump\t// in\ntag_70:\n    /* \"#utility.yul\":1734:1738   */\n  0x20\n  dup1\n    /* \"#utility.yul\":1798:1800   */\n  0x1f\n    /* \"#utility.yul\":1787:1801   */\n  dup4\n  gt\n    /* \"#utility.yul\":1815:1816   */\n  0x01\n    /* \"#utility.yul\":1810:2473   */\n  dup2\n  eq\n  tag_73\n  jumpi\n    /* \"#utility.yul\":2517:2518   */\n  0x00\n    /* \"#utility.yul\":2534:2540   */\n  dup5\n    /* \"#utility.yul\":2531:2620   */\n  iszero\n  tag_74\n  jumpi\n  pop\n    /* \"#utility.yul\":2586:2605   */\n  dup6\n  dup4\n  add\n    /* \"#utility.yul\":2580:2606   */\n  mload\n    /* \"#utility.yul\":2531:2620   */\ntag_74:\n  not(0x00)\n    /* \"#utility.yul\":1335:1336   */\n  0x03\n    /* \"#utility.yul\":1331:1342   */\n  dup7\n  swap1\n  shl\n    /* \"#utility.yul\":1327:1351   */\n  shr\n    /* \"#utility.yul\":1323:1352   */\n  not\n    /* \"#utility.yul\":1313:1353   */\n  and\n    /* \"#utility.yul\":1359:1360   */\n  0x01\n    /* \"#utility.yul\":1355:1366   */\n  dup6\n  swap1\n  shl\n    /* \"#utility.yul\":1310:1367   */\n  or\n    /* \"#utility.yul\":2633:2714   */\n  dup6\n  sstore\n    /* \"#utility.yul\":1780:2724   */\n  jump(tag_65)\n    /* \"#utility.yul\":1810:2473   */\ntag_73:\n    /* \"#utility.yul\":604:605   */\n  0x00\n    /* \"#utility.yul\":597:611   */\n  dup6\n  dup2\n  mstore\n    /* \"#utility.yul\":641:645   */\n  0x20\n    /* \"#utility.yul\":628:646   */\n  dup2\n  keccak256\n  not(0x1f)\n    /* \"#utility.yul\":1846:1866   */\n  dup7\n  and\n  swap2\n    /* \"#utility.yul\":1964:2200   */\ntag_77:\n    /* \"#utility.yul\":1978:1985   */\n  dup3\n    /* \"#utility.yul\":1975:1976   */\n  dup2\n    /* \"#utility.yul\":1972:1986   */\n  lt\n    /* \"#utility.yul\":1964:2200   */\n  iszero\n  tag_79\n  jumpi\n    /* \"#utility.yul\":2067:2086   */\n  dup9\n  dup7\n  add\n    /* \"#utility.yul\":2061:2087   */\n  mload\n    /* \"#utility.yul\":2046:2088   */\n  dup3\n  sstore\n    /* \"#utility.yul\":2159:2186   */\n  swap5\n  dup5\n  add\n  swap5\n    /* \"#utility.yul\":2127:2128   */\n  0x01\n    /* \"#utility.yul\":2115:2129   */\n  swap1\n  swap2\n  add\n  swap1\n    /* \"#utility.yul\":1994:2013   */\n  dup5\n  add\n    /* \"#utility.yul\":1964:2200   */\n  jump(tag_77)\ntag_79:\n    /* \"#utility.yul\":1968:1971   */\n  pop\n    /* \"#utility.yul\":2228:2234   */\n  dup6\n    /* \"#utility.yul\":2219:2226   */\n  dup3\n    /* \"#utility.yul\":2216:2235   */\n  lt\n    /* \"#utility.yul\":2213:2414   */\n  iszero\n  tag_80\n  jumpi\n    /* \"#utility.yul\":2289:2308   */\n  dup8\n  dup6\n  add\n    /* \"#utility.yul\":2283:2309   */\n  mload\n  not(0x00)\n    /* \"#utility.yul\":2372:2373   */\n  0x03\n    /* \"#utility.yul\":2368:2382   */\n  dup9\n  swap1\n  shl\n    /* \"#utility.yul\":2384:2387   */\n  0xf8\n    /* \"#utility.yul\":2364:2388   */\n  and\n    /* \"#utility.yul\":2360:2397   */\n  shr\n    /* \"#utility.yul\":2356:2398   */\n  not\n    /* \"#utility.yul\":2341:2399   */\n  and\n    /* \"#utility.yul\":2326:2400   */\n  dup2\n  sstore\n    /* \"#utility.yul\":2213:2414   */\ntag_80:\n  pop\n  pop\n  pop\n  pop\n  pop\n    /* \"#utility.yul\":2460:2461   */\n  0x01\n    /* \"#utility.yul\":2444:2458   */\n  swap1\n  dup2\n  shl\n    /* \"#utility.yul\":2440:2462   */\n  add\n    /* \"#utility.yul\":2427:2463   */\n  swap1\n  sstore\n  pop\n    /* \"#utility.yul\":1378:2730   */\n  jump\t// out\n    /* \"#utility.yul\":3095:3317   */\ntag_29:\n    /* \"#utility.yul\":3160:3169   */\n  dup1\n  dup3\n  add\n    /* \"#utility.yul\":3181:3191   */\n  dup1\n  dup3\n  gt\n    /* \"#utility.yul\":3178:3311   */\n  iszero\n  tag_83\n  jumpi\n    /* \"#utility.yul\":3233:3243   */\n  0x4e487b71\n    /* \"#utility.yul\":3228:3231   */\n  0xe0\n    /* \"#utility.yul\":3224:3244   */\n  shl\n    /* \"#utility.yul\":3221:3222   */\n  0x00\n    /* \"#utility.yul\":3214:3245   */\n  mstore\n    /* \"#utility.yul\":3268:3272   */\n  0x11\n    /* \"#utility.yul\":3265:3266   */\n  0x04\n    /* \"#utility.yul\":3258:3273   */\n  mstore\n    /* \"#utility.yul\":3296:3300   */\n  0x24\n    /* \"#utility.yul\":3293:3294   */\n  0x00\n    /* \"#utility.yul\":3286:3301   */\n  revert\n    /* \"#utility.yul\":3178:3311   */\ntag_83:\n    /* \"#utility.yul\":3095:3317   */\n  swap3\n  swap2\n  pop\n  pop\n  jump\t// out\n    /* \"#utility.yul\":3504:3844   */\ntag_54:\n    /* \"contracts/DexToken.sol\":221:1846  contract DexToken is ERC20, ERC20Burnable, Pausable, Ownable {... */\n  dataSize(sub_0)\n  dup1\n  dataOffset(sub_0)\n  0x00\n  codecopy\n  0x00\n  return\nstop\n\nsub_0: assembly {\n        /* \"contracts/DexToken.sol\":221:1846  contract DexToken is ERC20, ERC20Burnable, Pausable, Ownable {... */\n      mstore(0x40, 0x80)\n      callvalue\n      dup1\n      iszero\n      tag_1\n      jumpi\n      0x00\n      dup1\n      revert\n    tag_1:\n      pop\n      jumpi(tag_2, lt(calldatasize, 0x04))\n      shr(0xe0, calldataload(0x00))\n      dup1\n      0x70a08231\n      gt\n      tag_24\n      jumpi\n      dup1\n      0x95d89b41\n      gt\n      tag_25\n      jumpi\n      dup1\n      0x95d89b41\n      eq\n      tag_18\n      jumpi\n      dup1\n      0xa457c2d7\n      eq\n      tag_19\n      jumpi\n      dup1\n      0xa9059cbb\n      eq\n      tag_20\n      jumpi\n      dup1\n      0xbed99850\n      eq\n      tag_21\n      jumpi\n      dup1\n      0xdd62ed3e\n      eq\n      tag_22\n      jumpi\n      dup1\n      0xf2fde38b\n      eq\n      tag_23\n      jumpi\n      0x00\n      dup1\n      revert\n    tag_25:\n      dup1\n      0x70a08231\n      eq\n      tag_13\n      jumpi\n      dup1\n      0x715018a6\n      eq\n      tag_14\n      jumpi\n      dup1\n      0x79cc6790\n      eq\n      tag_15\n      jumpi\n      dup1\n      0x8456cb59\n      eq\n      tag_16\n      jumpi\n      dup1\n      0x8da5cb5b\n      eq\n      tag_17\n      jumpi\n      0x00\n      dup1\n      revert\n    tag_24:\n      dup1\n      0x313ce567\n      gt\n      tag_26\n      jumpi\n      dup1\n      0x313ce567\n      eq\n      tag_8\n      jumpi\n      dup1\n      0x39509351\n      eq\n      tag_9\n      jumpi\n      dup1\n      0x3f4ba83a\n      eq\n      tag_10\n      jumpi\n      dup1\n      0x42966c68\n      eq\n      tag_11\n      jumpi\n      dup1\n      0x5c975abb\n      eq\n      tag_12\n      jumpi\n      0x00\n      dup1\n      revert\n    tag_26:\n      dup1\n      0x06fdde03\n      eq\n      tag_3\n      jumpi\n      dup1\n      0x095ea7b3\n      eq\n      tag_4\n      jumpi\n      dup1\n      0x18160ddd\n      eq\n      tag_5\n      jumpi\n      dup1\n      0x189d165e\n      eq\n      tag_6\n      jumpi\n      dup1\n      0x23b872dd\n      eq\n      tag_7\n      jumpi\n    tag_2:\n      0x00\n      dup1\n      revert\n        /* \"contracts/token/ERC20/ERC20.sol\":944:1044  function name() public view virtual override returns (string memory) {... */\n    tag_3:\n      tag_27\n      tag_28\n      jump\t// in\n    tag_27:\n      mload(0x40)\n      tag_29\n      swap2\n      swap1\n      tag_30\n      jump\t// in\n    tag_29:\n      mload(0x40)\n      dup1\n      swap2\n      sub\n      swap1\n      return\n        /* \"contracts/token/ERC20/ERC20.sol\":3295:3496  function approve(address spender, uint256 amount) public virtual override returns (bool) {... */\n    tag_4:\n      tag_31\n      tag_32\n      calldatasize\n      0x04\n      tag_33\n      jump\t// in\n    tag_32:\n      tag_34\n      jump\t// in\n    tag_31:\n      mload(0x40)\n        /* \"#utility.yul\":1169:1183   */\n      swap1\n      iszero\n        /* \"#utility.yul\":1162:1184   */\n      iszero\n        /* \"#utility.yul\":1144:1185   */\n      dup2\n      mstore\n        /* \"#utility.yul\":1132:1134   */\n      0x20\n        /* \"#utility.yul\":1117:1135   */\n      add\n        /* \"contracts/token/ERC20/ERC20.sol\":3295:3496  function approve(address spender, uint256 amount) public virtual override returns (bool) {... */\n      tag_29\n        /* \"#utility.yul\":1004:1191   */\n      jump\n        /* \"contracts/token/ERC20/ERC20.sol\":2064:2172  function totalSupply() public view virtual override returns (uint256) {... */\n    tag_5:\n        /* \"contracts/token/ERC20/ERC20.sol\":2152:2164  _totalSupply */\n      sload(0x02)\n        /* \"contracts/token/ERC20/ERC20.sol\":2064:2172  function totalSupply() public view virtual override returns (uint256) {... */\n    tag_37:\n      mload(0x40)\n        /* \"#utility.yul\":1342:1367   */\n      swap1\n      dup2\n      mstore\n        /* \"#utility.yul\":1330:1332   */\n      0x20\n        /* \"#utility.yul\":1315:1333   */\n      add\n        /* \"contracts/token/ERC20/ERC20.sol\":2064:2172  function totalSupply() public view virtual override returns (uint256) {... */\n      tag_29\n        /* \"#utility.yul\":1196:1373   */\n      jump\n        /* \"contracts/DexToken.sol\":862:1038  function setBurnRate(uint256 newBurnRate) public onlyOwner {... */\n    tag_6:\n      tag_41\n      tag_42\n      calldatasize\n      0x04\n      tag_43\n      jump\t// in\n    tag_42:\n      tag_44\n      jump\t// in\n    tag_41:\n      stop\n        /* \"contracts/token/ERC20/ERC20.sol\":4076:4371  function transferFrom(... */\n    tag_7:\n      tag_31\n      tag_46\n      calldatasize\n      0x04\n      tag_47\n      jump\t// in\n    tag_46:\n      tag_48\n      jump\t// in\n        /* \"contracts/token/ERC20/ERC20.sol\":1906:1999  function decimals() public view virtual override returns (uint8) {... */\n    tag_8:\n      mload(0x40)\n        /* \"contracts/token/ERC20/ERC20.sol\":1989:1991  18 */\n      0x12\n        /* \"#utility.yul\":2038:2074   */\n      dup2\n      mstore\n        /* \"#utility.yul\":2026:2028   */\n      0x20\n        /* \"#utility.yul\":2011:2029   */\n      add\n        /* \"contracts/token/ERC20/ERC20.sol\":1906:1999  function decimals() public view virtual override returns (uint8) {... */\n      tag_29\n        /* \"#utility.yul\":1896:2080   */\n      jump\n        /* \"contracts/token/ERC20/ERC20.sol\":4780:5018  function increaseAllowance(address spender, uint256 addedValue) public virtual returns (bool) {... */\n    tag_9:\n      tag_31\n      tag_55\n      calldatasize\n      0x04\n      tag_33\n      jump\t// in\n    tag_55:\n      tag_56\n      jump\t// in\n        /* \"contracts/DexToken.sol\":540:605  function unpause() public onlyOwner {... */\n    tag_10:\n      tag_41\n      tag_59\n      jump\t// in\n        /* \"contracts/token/ERC20/extensions/ERC20Burnable.sol\":501:592  function burn(uint256 amount) public virtual {... */\n    tag_11:\n      tag_41\n      tag_61\n      calldatasize\n      0x04\n      tag_43\n      jump\t// in\n    tag_61:\n      tag_62\n      jump\t// in\n        /* \"contracts/security/Pausable.sol\":1154:1240  function paused() public view virtual returns (bool) {... */\n    tag_12:\n        /* \"contracts/security/Pausable.sol\":1225:1232  _paused */\n      and(0xff, sload(0x05))\n        /* \"contracts/security/Pausable.sol\":1154:1240  function paused() public view virtual returns (bool) {... */\n      jump(tag_31)\n        /* \"contracts/token/ERC20/ERC20.sol\":2235:2362  function balanceOf(address account) public view virtual override returns (uint256) {... */\n    tag_13:\n      tag_37\n      tag_67\n      calldatasize\n      0x04\n      tag_68\n      jump\t// in\n    tag_67:\n      sub(shl(0xa0, 0x01), 0x01)\n        /* \"contracts/token/ERC20/ERC20.sol\":2336:2354  _balances[account] */\n      and\n        /* \"contracts/token/ERC20/ERC20.sol\":2309:2316  uint256 */\n      0x00\n        /* \"contracts/token/ERC20/ERC20.sol\":2336:2354  _balances[account] */\n      swap1\n      dup2\n      mstore\n      0x20\n      dup2\n      swap1\n      mstore\n      0x40\n      swap1\n      keccak256\n      sload\n      swap1\n        /* \"contracts/token/ERC20/ERC20.sol\":2235:2362  function balanceOf(address account) public view virtual override returns (uint256) {... */\n      jump\n        /* \"contracts/access/Ownable.sol\":1312:1415  function renounceOwnership() public virtual onlyOwner {... */\n    tag_14:\n      tag_41\n      tag_72\n      jump\t// in\n        /* \"contracts/token/ERC20/extensions/ERC20Burnable.sol\":911:1075  function burnFrom(address account, uint256 amount) public virtual {... */\n    tag_15:\n      tag_41\n      tag_74\n      calldatasize\n      0x04\n      tag_33\n      jump\t// in\n    tag_74:\n      tag_75\n      jump\t// in\n        /* \"contracts/DexToken.sol\":471:532  function pause() public onlyOwner {... */\n    tag_16:\n      tag_41\n      tag_77\n      jump\t// in\n        /* \"contracts/access/Ownable.sol\":664:751  function owner() public view virtual returns (address) {... */\n    tag_17:\n        /* \"contracts/access/Ownable.sol\":737:743  _owner */\n      sload(0x05)\n      0x0100\n      swap1\n      div\n      sub(shl(0xa0, 0x01), 0x01)\n      and\n        /* \"contracts/access/Ownable.sol\":664:751  function owner() public view virtual returns (address) {... */\n      mload(0x40)\n      sub(shl(0xa0, 0x01), 0x01)\n        /* \"#utility.yul\":2440:2472   */\n      swap1\n      swap2\n      and\n        /* \"#utility.yul\":2422:2473   */\n      dup2\n      mstore\n        /* \"#utility.yul\":2410:2412   */\n      0x20\n        /* \"#utility.yul\":2395:2413   */\n      add\n        /* \"contracts/access/Ownable.sol\":664:751  function owner() public view virtual returns (address) {... */\n      tag_29\n        /* \"#utility.yul\":2276:2479   */\n      jump\n        /* \"contracts/token/ERC20/ERC20.sol\":1163:1267  function symbol() public view virtual override returns (string memory) {... */\n    tag_18:\n      tag_27\n      tag_83\n      jump\t// in\n        /* \"contracts/token/ERC20/ERC20.sol\":5521:5957  function decreaseAllowance(address spender, uint256 subtractedValue) public virtual returns (bool) {... */\n    tag_19:\n      tag_31\n      tag_86\n      calldatasize\n      0x04\n      tag_33\n      jump\t// in\n    tag_86:\n      tag_87\n      jump\t// in\n        /* \"contracts/token/ERC20/ERC20.sol\":2568:2761  function transfer(address to, uint256 amount) public virtual override returns (bool) {... */\n    tag_20:\n      tag_31\n      tag_90\n      calldatasize\n      0x04\n      tag_33\n      jump\t// in\n    tag_90:\n      tag_91\n      jump\t// in\n        /* \"contracts/DexToken.sol\":289:312  uint256 public burnRate */\n    tag_21:\n      tag_37\n      sload(0x06)\n      dup2\n      jump\n        /* \"contracts/token/ERC20/ERC20.sol\":2824:2975  function allowance(address owner, address spender) public view virtual override returns (uint256) {... */\n    tag_22:\n      tag_37\n      tag_97\n      calldatasize\n      0x04\n      tag_98\n      jump\t// in\n    tag_97:\n      tag_99\n      jump\t// in\n        /* \"contracts/access/Ownable.sol\":1570:1771  function transferOwnership(address newOwner) public virtual onlyOwner {... */\n    tag_23:\n      tag_41\n      tag_102\n      calldatasize\n      0x04\n      tag_68\n      jump\t// in\n    tag_102:\n      tag_103\n      jump\t// in\n        /* \"contracts/token/ERC20/ERC20.sol\":944:1044  function name() public view virtual override returns (string memory) {... */\n    tag_28:\n        /* \"contracts/token/ERC20/ERC20.sol\":998:1011  string memory */\n      0x60\n        /* \"contracts/token/ERC20/ERC20.sol\":1031:1036  _name */\n      0x03\n        /* \"contracts/token/ERC20/ERC20.sol\":1024:1036  return _name */\n      dup1\n      sload\n      tag_106\n      swap1\n      tag_107\n      jump\t// in\n    tag_106:\n      dup1\n      0x1f\n      add\n      0x20\n      dup1\n      swap2\n      div\n      mul\n      0x20\n      add\n      mload(0x40)\n      swap1\n      dup2\n      add\n      0x40\n      mstore\n      dup1\n      swap3\n      swap2\n      swap1\n      dup2\n      dup2\n      mstore\n      0x20\n      add\n      dup3\n      dup1\n      sload\n      tag_108\n      swap1\n      tag_107\n      jump\t// in\n    tag_108:\n      dup1\n      iszero\n      tag_109\n      jumpi\n      dup1\n      0x1f\n      lt\n      tag_110\n      jumpi\n      0x0100\n      dup1\n      dup4\n      sload\n      div\n      mul\n      dup4\n      mstore\n      swap2\n      0x20\n      add\n      swap2\n      jump(tag_109)\n    tag_110:\n      dup3\n      add\n      swap2\n      swap1\n      0x00\n      mstore\n      keccak256(0x00, 0x20)\n      swap1\n    tag_111:\n      dup2\n      sload\n      dup2\n      mstore\n      swap1\n      0x01\n      add\n      swap1\n      0x20\n      add\n      dup1\n      dup4\n      gt\n      tag_111\n      jumpi\n      dup3\n      swap1\n      sub\n      0x1f\n      and\n      dup3\n      add\n      swap2\n    tag_109:\n      pop\n      pop\n      pop\n      pop\n      pop\n      swap1\n      pop\n        /* \"contracts/token/ERC20/ERC20.sol\":944:1044  function name() public view virtual override returns (string memory) {... */\n      swap1\n      jump\t// out\n        /* \"contracts/token/ERC20/ERC20.sol\":3295:3496  function approve(address spender, uint256 amount) public virtual override returns (bool) {... */\n    tag_34:\n        /* \"contracts/token/ERC20/ERC20.sol\":3378:3382  bool */\n      0x00\n        /* \"contracts/utils/Context.sol\":173:183  msg.sender */\n      caller\n        /* \"contracts/token/ERC20/ERC20.sol\":3434:3466  _approve(owner, spender, amount) */\n      tag_115\n        /* \"contracts/utils/Context.sol\":173:183  msg.sender */\n      dup2\n        /* \"contracts/token/ERC20/ERC20.sol\":3450:3457  spender */\n      dup6\n        /* \"contracts/token/ERC20/ERC20.sol\":3459:3465  amount */\n      dup6\n        /* \"contracts/token/ERC20/ERC20.sol\":3434:3442  _approve */\n      tag_116\n        /* \"contracts/token/ERC20/ERC20.sol\":3434:3466  _approve(owner, spender, amount) */\n      jump\t// in\n    tag_115:\n        /* \"contracts/token/ERC20/ERC20.sol\":3484:3488  true */\n      0x01\n        /* \"contracts/token/ERC20/ERC20.sol\":3477:3488  return true */\n      swap2\n      pop\n      pop\n        /* \"contracts/token/ERC20/ERC20.sol\":3295:3496  function approve(address spender, uint256 amount) public virtual override returns (bool) {... */\n    tag_112:\n      swap3\n      swap2\n      pop\n      pop\n      jump\t// out\n        /* \"contracts/DexToken.sol\":862:1038  function setBurnRate(uint256 newBurnRate) public onlyOwner {... */\n    tag_44:\n        /* \"contracts/access/Ownable.sol\":550:563  _checkOwner() */\n      tag_119\n        /* \"contracts/access/Ownable.sol\":550:561  _checkOwner */\n      tag_120\n        /* \"contracts/access/Ownable.sol\":550:563  _checkOwner() */\n      jump\t// in\n    tag_119:\n        /* \"contracts/DexToken.sol\":955:958  100 */\n      0x64\n        /* \"contracts/DexToken.sol\":940:951  newBurnRate */\n      dup2\n        /* \"contracts/DexToken.sol\":940:958  newBurnRate <= 100 */\n      gt\n      iszero\n        /* \"contracts/DexToken.sol\":932:997  require(newBurnRate <= 100, \"Burn rate cannot be more than 100%\") */\n      tag_122\n      jumpi\n      mload(0x40)\n      shl(0xe5, 0x461bcd)\n      dup2\n      mstore\n        /* \"#utility.yul\":3336:3338   */\n      0x20\n        /* \"contracts/DexToken.sol\":932:997  require(newBurnRate <= 100, \"Burn rate cannot be more than 100%\") */\n      0x04\n      dup3\n      add\n        /* \"#utility.yul\":3318:3339   */\n      mstore\n        /* \"#utility.yul\":3375:3377   */\n      0x22\n        /* \"#utility.yul\":3355:3373   */\n      0x24\n      dup3\n      add\n        /* \"#utility.yul\":3348:3378   */\n      mstore\n        /* \"#utility.yul\":3414:3448   */\n      0x4275726e20726174652063616e6e6f74206265206d6f7265207468616e203130\n        /* \"#utility.yul\":3394:3412   */\n      0x44\n      dup3\n      add\n        /* \"#utility.yul\":3387:3449   */\n      mstore\n      shl(0xf0, 0x3025)\n        /* \"#utility.yul\":3465:3483   */\n      0x64\n      dup3\n      add\n        /* \"#utility.yul\":3458:3490   */\n      mstore\n        /* \"#utility.yul\":3507:3526   */\n      0x84\n      add\n        /* \"contracts/DexToken.sol\":932:997  require(newBurnRate <= 100, \"Burn rate cannot be more than 100%\") */\n    tag_123:\n      mload(0x40)\n      dup1\n      swap2\n      sub\n      swap1\n      revert\n    tag_122:\n        /* \"contracts/DexToken.sol\":1008:1016  burnRate */\n      0x06\n        /* \"contracts/DexToken.sol\":1008:1030  burnRate = newBurnRate */\n      sstore\n        /* \"contracts/DexToken.sol\":862:1038  function setBurnRate(uint256 newBurnRate) public onlyOwner {... */\n      jump\t// out\n        /* \"contracts/token/ERC20/ERC20.sol\":4076:4371  function transferFrom(... */\n    tag_48:\n        /* \"contracts/token/ERC20/ERC20.sol\":4207:4211  bool */\n      0x00\n        /* \"contracts/utils/Context.sol\":173:183  msg.sender */\n      caller\n        /* \"contracts/token/ERC20/ERC20.sol\":4265:4303  _spendAllowance(from, spender, amount) */\n      tag_127\n        /* \"contracts/token/ERC20/ERC20.sol\":4281:4285  from */\n      dup6\n        /* \"contracts/utils/Context.sol\":173:183  msg.sender */\n      dup3\n        /* \"contracts/token/ERC20/ERC20.sol\":4296:4302  amount */\n      dup6\n        /* \"contracts/token/ERC20/ERC20.sol\":4265:4280  _spendAllowance */\n      tag_128\n        /* \"contracts/token/ERC20/ERC20.sol\":4265:4303  _spendAllowance(from, spender, amount) */\n      jump\t// in\n    tag_127:\n        /* \"contracts/token/ERC20/ERC20.sol\":4314:4341  _transfer(from, to, amount) */\n      tag_129\n        /* \"contracts/token/ERC20/ERC20.sol\":4324:4328  from */\n      dup6\n        /* \"contracts/token/ERC20/ERC20.sol\":4330:4332  to */\n      dup6\n        /* \"contracts/token/ERC20/ERC20.sol\":4334:4340  amount */\n      dup6\n        /* \"contracts/token/ERC20/ERC20.sol\":4314:4323  _transfer */\n      tag_130\n        /* \"contracts/token/ERC20/ERC20.sol\":4314:4341  _transfer(from, to, amount) */\n      jump\t// in\n    tag_129:\n      pop\n        /* \"contracts/token/ERC20/ERC20.sol\":4359:4363  true */\n      0x01\n      swap5\n        /* \"contracts/token/ERC20/ERC20.sol\":4076:4371  function transferFrom(... */\n      swap4\n      pop\n      pop\n      pop\n      pop\n      jump\t// out\n        /* \"contracts/token/ERC20/ERC20.sol\":4780:5018  function increaseAllowance(address spender, uint256 addedValue) public virtual returns (bool) {... */\n    tag_56:\n        /* \"contracts/token/ERC20/ERC20.sol\":4868:4872  bool */\n      0x00\n        /* \"contracts/utils/Context.sol\":173:183  msg.sender */\n      caller\n        /* \"contracts/token/ERC20/ERC20.sol\":4924:4988  _approve(owner, spender, allowance(owner, spender) + addedValue) */\n      tag_115\n        /* \"contracts/utils/Context.sol\":173:183  msg.sender */\n      dup2\n        /* \"contracts/token/ERC20/ERC20.sol\":4940:4947  spender */\n      dup6\n        /* \"contracts/token/ERC20/ERC20.sol\":4977:4987  addedValue */\n      dup6\n        /* \"contracts/token/ERC20/ERC20.sol\":4949:4974  allowance(owner, spender) */\n      tag_135\n        /* \"contracts/utils/Context.sol\":173:183  msg.sender */\n      dup4\n        /* \"contracts/token/ERC20/ERC20.sol\":4940:4947  spender */\n      dup4\n        /* \"contracts/token/ERC20/ERC20.sol\":4949:4958  allowance */\n      tag_99\n        /* \"contracts/token/ERC20/ERC20.sol\":4949:4974  allowance(owner, spender) */\n      jump\t// in\n    tag_135:\n        /* \"contracts/token/ERC20/ERC20.sol\":4949:4987  allowance(owner, spender) + addedValue */\n      tag_136\n      swap2\n      swap1\n      tag_137\n      jump\t// in\n    tag_136:\n        /* \"contracts/token/ERC20/ERC20.sol\":4924:4932  _approve */\n      tag_116\n        /* \"contracts/token/ERC20/ERC20.sol\":4924:4988  _approve(owner, spender, allowance(owner, spender) + addedValue) */\n      jump\t// in\n        /* \"contracts/DexToken.sol\":540:605  function unpause() public onlyOwner {... */\n    tag_59:\n        /* \"contracts/access/Ownable.sol\":550:563  _checkOwner() */\n      tag_139\n        /* \"contracts/access/Ownable.sol\":550:561  _checkOwner */\n      tag_120\n        /* \"contracts/access/Ownable.sol\":550:563  _checkOwner() */\n      jump\t// in\n    tag_139:\n        /* \"contracts/DexToken.sol\":587:597  _unpause() */\n      tag_141\n        /* \"contracts/DexToken.sol\":587:595  _unpause */\n      tag_142\n        /* \"contracts/DexToken.sol\":587:597  _unpause() */\n      jump\t// in\n    tag_141:\n        /* \"contracts/DexToken.sol\":540:605  function unpause() public onlyOwner {... */\n      jump\t// out\n        /* \"contracts/token/ERC20/extensions/ERC20Burnable.sol\":501:592  function burn(uint256 amount) public virtual {... */\n    tag_62:\n        /* \"contracts/token/ERC20/extensions/ERC20Burnable.sol\":557:584  _burn(_msgSender(), amount) */\n      tag_144\n        /* \"contracts/utils/Context.sol\":173:183  msg.sender */\n      caller\n        /* \"contracts/token/ERC20/extensions/ERC20Burnable.sol\":577:583  amount */\n      dup3\n        /* \"contracts/token/ERC20/extensions/ERC20Burnable.sol\":557:562  _burn */\n      tag_146\n        /* \"contracts/token/ERC20/extensions/ERC20Burnable.sol\":557:584  _burn(_msgSender(), amount) */\n      jump\t// in\n    tag_144:\n        /* \"contracts/token/ERC20/extensions/ERC20Burnable.sol\":501:592  function burn(uint256 amount) public virtual {... */\n      pop\n      jump\t// out\n        /* \"contracts/access/Ownable.sol\":1312:1415  function renounceOwnership() public virtual onlyOwner {... */\n    tag_72:\n        /* \"contracts/access/Ownable.sol\":550:563  _checkOwner() */\n      tag_150\n        /* \"contracts/access/Ownable.sol\":550:561  _checkOwner */\n      tag_120\n        /* \"contracts/access/Ownable.sol\":550:563  _checkOwner() */\n      jump\t// in\n    tag_150:\n        /* \"contracts/access/Ownable.sol\":1377:1407  _transferOwnership(address(0)) */\n      tag_141\n        /* \"contracts/access/Ownable.sol\":1404:1405  0 */\n      0x00\n        /* \"contracts/access/Ownable.sol\":1377:1395  _transferOwnership */\n      tag_153\n        /* \"contracts/access/Ownable.sol\":1377:1407  _transferOwnership(address(0)) */\n      jump\t// in\n        /* \"contracts/token/ERC20/extensions/ERC20Burnable.sol\":911:1075  function burnFrom(address account, uint256 amount) public virtual {... */\n    tag_75:\n        /* \"contracts/token/ERC20/extensions/ERC20Burnable.sol\":988:1034  _spendAllowance(account, _msgSender(), amount) */\n      tag_155\n        /* \"contracts/token/ERC20/extensions/ERC20Burnable.sol\":1004:1011  account */\n      dup3\n        /* \"contracts/utils/Context.sol\":173:183  msg.sender */\n      caller\n        /* \"contracts/token/ERC20/extensions/ERC20Burnable.sol\":1027:1033  amount */\n      dup4\n        /* \"contracts/token/ERC20/extensions/ERC20Burnable.sol\":988:1003  _spendAllowance */\n      tag_128\n        /* \"contracts/token/ERC20/extensions/ERC20Burnable.sol\":988:1034  _spendAllowance(account, _msgSender(), amount) */\n      jump\t// in\n    tag_155:\n        /* \"contracts/token/ERC20/extensions/ERC20Burnable.sol\":1045:1067  _burn(account, amount) */\n      tag_157\n        /* \"contracts/token/ERC20/extensions/ERC20Burnable.sol\":1051:1058  account */\n      dup3\n        /* \"contracts/token/ERC20/extensions/ERC20Burnable.sol\":1060:1066  amount */\n      dup3\n        /* \"contracts/token/ERC20/extensions/ERC20Burnable.sol\":1045:1050  _burn */\n      tag_146\n        /* \"contracts/token/ERC20/extensions/ERC20Burnable.sol\":1045:1067  _burn(account, amount) */\n      jump\t// in\n    tag_157:\n        /* \"contracts/token/ERC20/extensions/ERC20Burnable.sol\":911:1075  function burnFrom(address account, uint256 amount) public virtual {... */\n      pop\n      pop\n      jump\t// out\n        /* \"contracts/DexToken.sol\":471:532  function pause() public onlyOwner {... */\n    tag_77:\n        /* \"contracts/access/Ownable.sol\":550:563  _checkOwner() */\n      tag_159\n        /* \"contracts/access/Ownable.sol\":550:561  _checkOwner */\n      tag_120\n        /* \"contracts/access/Ownable.sol\":550:563  _checkOwner() */\n      jump\t// in\n    tag_159:\n        /* \"contracts/DexToken.sol\":516:524  _pause() */\n      tag_141\n        /* \"contracts/DexToken.sol\":516:522  _pause */\n      tag_162\n        /* \"contracts/DexToken.sol\":516:524  _pause() */\n      jump\t// in\n        /* \"contracts/token/ERC20/ERC20.sol\":1163:1267  function symbol() public view virtual override returns (string memory) {... */\n    tag_83:\n        /* \"contracts/token/ERC20/ERC20.sol\":1219:1232  string memory */\n      0x60\n        /* \"contracts/token/ERC20/ERC20.sol\":1252:1259  _symbol */\n      0x04\n        /* \"contracts/token/ERC20/ERC20.sol\":1245:1259  return _symbol */\n      dup1\n      sload\n      tag_106\n      swap1\n      tag_107\n      jump\t// in\n        /* \"contracts/token/ERC20/ERC20.sol\":5521:5957  function decreaseAllowance(address spender, uint256 subtractedValue) public virtual returns (bool) {... */\n    tag_87:\n        /* \"contracts/token/ERC20/ERC20.sol\":5614:5618  bool */\n      0x00\n        /* \"contracts/utils/Context.sol\":173:183  msg.sender */\n      caller\n        /* \"contracts/token/ERC20/ERC20.sol\":5614:5618  bool */\n      dup2\n        /* \"contracts/token/ERC20/ERC20.sol\":5697:5722  allowance(owner, spender) */\n      tag_172\n        /* \"contracts/utils/Context.sol\":173:183  msg.sender */\n      dup3\n        /* \"contracts/token/ERC20/ERC20.sol\":5714:5721  spender */\n      dup7\n        /* \"contracts/token/ERC20/ERC20.sol\":5697:5706  allowance */\n      tag_99\n        /* \"contracts/token/ERC20/ERC20.sol\":5697:5722  allowance(owner, spender) */\n      jump\t// in\n    tag_172:\n        /* \"contracts/token/ERC20/ERC20.sol\":5670:5722  uint256 currentAllowance = allowance(owner, spender) */\n      swap1\n      pop\n        /* \"contracts/token/ERC20/ERC20.sol\":5761:5776  subtractedValue */\n      dup4\n        /* \"contracts/token/ERC20/ERC20.sol\":5741:5757  currentAllowance */\n      dup2\n        /* \"contracts/token/ERC20/ERC20.sol\":5741:5776  currentAllowance >= subtractedValue */\n      lt\n      iszero\n        /* \"contracts/token/ERC20/ERC20.sol\":5733:5818  require(currentAllowance >= subtractedValue, \"ERC20: decreased allowance below zero\") */\n      tag_173\n      jumpi\n      mload(0x40)\n      shl(0xe5, 0x461bcd)\n      dup2\n      mstore\n        /* \"#utility.yul\":4001:4003   */\n      0x20\n        /* \"contracts/token/ERC20/ERC20.sol\":5733:5818  require(currentAllowance >= subtractedValue, \"ERC20: decreased allowance below zero\") */\n      0x04\n      dup3\n      add\n        /* \"#utility.yul\":3983:4004   */\n      mstore\n        /* \"#utility.yul\":4040:4042   */\n      0x25\n        /* \"#utility.yul\":4020:4038   */\n      0x24\n      dup3\n      add\n        /* \"#utility.yul\":4013:4043   */\n      mstore\n        /* \"#utility.yul\":4079:4113   */\n      0x45524332303a2064656372656173656420616c6c6f77616e63652062656c6f77\n        /* \"#utility.yul\":4059:4077   */\n      0x44\n      dup3\n      add\n        /* \"#utility.yul\":4052:4114   */\n      mstore\n      shl(0xd8, 0x207a65726f)\n        /* \"#utility.yul\":4130:4148   */\n      0x64\n      dup3\n      add\n        /* \"#utility.yul\":4123:4158   */\n      mstore\n        /* \"#utility.yul\":4175:4194   */\n      0x84\n      add\n        /* \"contracts/token/ERC20/ERC20.sol\":5733:5818  require(currentAllowance >= subtractedValue, \"ERC20: decreased allowance below zero\") */\n      tag_123\n        /* \"#utility.yul\":3799:4200   */\n      jump\n        /* \"contracts/token/ERC20/ERC20.sol\":5733:5818  require(currentAllowance >= subtractedValue, \"ERC20: decreased allowance below zero\") */\n    tag_173:\n        /* \"contracts/token/ERC20/ERC20.sol\":5854:5914  _approve(owner, spender, currentAllowance - subtractedValue) */\n      tag_129\n        /* \"contracts/token/ERC20/ERC20.sol\":5863:5868  owner */\n      dup3\n        /* \"contracts/token/ERC20/ERC20.sol\":5870:5877  spender */\n      dup7\n        /* \"contracts/token/ERC20/ERC20.sol\":5898:5913  subtractedValue */\n      dup7\n        /* \"contracts/token/ERC20/ERC20.sol\":5879:5895  currentAllowance */\n      dup5\n        /* \"contracts/token/ERC20/ERC20.sol\":5879:5913  currentAllowance - subtractedValue */\n      sub\n        /* \"contracts/token/ERC20/ERC20.sol\":5854:5862  _approve */\n      tag_116\n        /* \"contracts/token/ERC20/ERC20.sol\":5854:5914  _approve(owner, spender, currentAllowance - subtractedValue) */\n      jump\t// in\n        /* \"contracts/token/ERC20/ERC20.sol\":2568:2761  function transfer(address to, uint256 amount) public virtual override returns (bool) {... */\n    tag_91:\n        /* \"contracts/token/ERC20/ERC20.sol\":2647:2651  bool */\n      0x00\n        /* \"contracts/utils/Context.sol\":173:183  msg.sender */\n      caller\n        /* \"contracts/token/ERC20/ERC20.sol\":2703:2731  _transfer(owner, to, amount) */\n      tag_115\n        /* \"contracts/utils/Context.sol\":173:183  msg.sender */\n      dup2\n        /* \"contracts/token/ERC20/ERC20.sol\":2720:2722  to */\n      dup6\n        /* \"contracts/token/ERC20/ERC20.sol\":2724:2730  amount */\n      dup6\n        /* \"contracts/token/ERC20/ERC20.sol\":2703:2712  _transfer */\n      tag_130\n        /* \"contracts/token/ERC20/ERC20.sol\":2703:2731  _transfer(owner, to, amount) */\n      jump\t// in\n        /* \"contracts/token/ERC20/ERC20.sol\":2824:2975  function allowance(address owner, address spender) public view virtual override returns (uint256) {... */\n    tag_99:\n      sub(shl(0xa0, 0x01), 0x01)\n        /* \"contracts/token/ERC20/ERC20.sol\":2940:2958  _allowances[owner] */\n      swap2\n      dup3\n      and\n        /* \"contracts/token/ERC20/ERC20.sol\":2913:2920  uint256 */\n      0x00\n        /* \"contracts/token/ERC20/ERC20.sol\":2940:2958  _allowances[owner] */\n      swap1\n      dup2\n      mstore\n        /* \"contracts/token/ERC20/ERC20.sol\":2940:2951  _allowances */\n      0x01\n        /* \"contracts/token/ERC20/ERC20.sol\":2940:2958  _allowances[owner] */\n      0x20\n      swap1\n      dup2\n      mstore\n      0x40\n      dup1\n      dup4\n      keccak256\n        /* \"contracts/token/ERC20/ERC20.sol\":2940:2967  _allowances[owner][spender] */\n      swap4\n      swap1\n      swap5\n      and\n      dup3\n      mstore\n      swap2\n      swap1\n      swap2\n      mstore\n      keccak256\n      sload\n      swap1\n        /* \"contracts/token/ERC20/ERC20.sol\":2824:2975  function allowance(address owner, address spender) public view virtual override returns (uint256) {... */\n      jump\t// out\n        /* \"contracts/access/Ownable.sol\":1570:1771  function transferOwnership(address newOwner) public virtual onlyOwner {... */\n    tag_103:\n        /* \"contracts/access/Ownable.sol\":550:563  _checkOwner() */\n      tag_182\n        /* \"contracts/access/Ownable.sol\":550:561  _checkOwner */\n      tag_120\n        /* \"contracts/access/Ownable.sol\":550:563  _checkOwner() */\n      jump\t// in\n    tag_182:\n      sub(shl(0xa0, 0x01), 0x01)\n        /* \"contracts/access/Ownable.sol\":1659:1681  newOwner != address(0) */\n      dup2\n      and\n        /* \"contracts/access/Ownable.sol\":1651:1724  require(newOwner != address(0), \"Ownable: new owner is the zero address\") */\n      tag_184\n      jumpi\n      mload(0x40)\n      shl(0xe5, 0x461bcd)\n      dup2\n      mstore\n        /* \"#utility.yul\":4407:4409   */\n      0x20\n        /* \"contracts/access/Ownable.sol\":1651:1724  require(newOwner != address(0), \"Ownable: new owner is the zero address\") */\n      0x04\n      dup3\n      add\n        /* \"#utility.yul\":4389:4410   */\n      mstore\n        /* \"#utility.yul\":4446:4448   */\n      0x26\n        /* \"#utility.yul\":4426:4444   */\n      0x24\n      dup3\n      add\n        /* \"#utility.yul\":4419:4449   */\n      mstore\n        /* \"#utility.yul\":4485:4519   */\n      0x4f776e61626c653a206e6577206f776e657220697320746865207a65726f2061\n        /* \"#utility.yul\":4465:4483   */\n      0x44\n      dup3\n      add\n        /* \"#utility.yul\":4458:4520   */\n      mstore\n      shl(0xd0, 0x646472657373)\n        /* \"#utility.yul\":4536:4554   */\n      0x64\n      dup3\n      add\n        /* \"#utility.yul\":4529:4565   */\n      mstore\n        /* \"#utility.yul\":4582:4601   */\n      0x84\n      add\n        /* \"contracts/access/Ownable.sol\":1651:1724  require(newOwner != address(0), \"Ownable: new owner is the zero address\") */\n      tag_123\n        /* \"#utility.yul\":4205:4607   */\n      jump\n        /* \"contracts/access/Ownable.sol\":1651:1724  require(newOwner != address(0), \"Ownable: new owner is the zero address\") */\n    tag_184:\n        /* \"contracts/access/Ownable.sol\":1735:1763  _transferOwnership(newOwner) */\n      tag_144\n        /* \"contracts/access/Ownable.sol\":1754:1762  newOwner */\n      dup2\n        /* \"contracts/access/Ownable.sol\":1735:1753  _transferOwnership */\n      tag_153\n        /* \"contracts/access/Ownable.sol\":1735:1763  _transferOwnership(newOwner) */\n      jump\t// in\n        /* \"contracts/token/ERC20/ERC20.sol\":11272:11397  function _beforeTokenTransfer(... */\n    tag_104:\n      pop\n      pop\n      pop\n      jump\t// out\n        /* \"contracts/token/ERC20/ERC20.sol\":9548:9928  function _approve(... */\n    tag_116:\n      sub(shl(0xa0, 0x01), 0x01)\n        /* \"contracts/token/ERC20/ERC20.sol\":9684:9703  owner != address(0) */\n      dup4\n      and\n        /* \"contracts/token/ERC20/ERC20.sol\":9676:9744  require(owner != address(0), \"ERC20: approve from the zero address\") */\n      tag_191\n      jumpi\n      mload(0x40)\n      shl(0xe5, 0x461bcd)\n      dup2\n      mstore\n        /* \"#utility.yul\":4814:4816   */\n      0x20\n        /* \"contracts/token/ERC20/ERC20.sol\":9676:9744  require(owner != address(0), \"ERC20: approve from the zero address\") */\n      0x04\n      dup3\n      add\n        /* \"#utility.yul\":4796:4817   */\n      mstore\n        /* \"#utility.yul\":4853:4855   */\n      0x24\n        /* \"#utility.yul\":4833:4851   */\n      dup1\n      dup3\n      add\n        /* \"#utility.yul\":4826:4856   */\n      mstore\n        /* \"#utility.yul\":4892:4926   */\n      0x45524332303a20617070726f76652066726f6d20746865207a65726f20616464\n        /* \"#utility.yul\":4872:4890   */\n      0x44\n      dup3\n      add\n        /* \"#utility.yul\":4865:4927   */\n      mstore\n      shl(0xe0, 0x72657373)\n        /* \"#utility.yul\":4943:4961   */\n      0x64\n      dup3\n      add\n        /* \"#utility.yul\":4936:4970   */\n      mstore\n        /* \"#utility.yul\":4987:5006   */\n      0x84\n      add\n        /* \"contracts/token/ERC20/ERC20.sol\":9676:9744  require(owner != address(0), \"ERC20: approve from the zero address\") */\n      tag_123\n        /* \"#utility.yul\":4612:5012   */\n      jump\n        /* \"contracts/token/ERC20/ERC20.sol\":9676:9744  require(owner != address(0), \"ERC20: approve from the zero address\") */\n    tag_191:\n      sub(shl(0xa0, 0x01), 0x01)\n        /* \"contracts/token/ERC20/ERC20.sol\":9763:9784  spender != address(0) */\n      dup3\n      and\n        /* \"contracts/token/ERC20/ERC20.sol\":9755:9823  require(spender != address(0), \"ERC20: approve to the zero address\") */\n      tag_194\n      jumpi\n      mload(0x40)\n      shl(0xe5, 0x461bcd)\n      dup2\n      mstore\n        /* \"#utility.yul\":5219:5221   */\n      0x20\n        /* \"contracts/token/ERC20/ERC20.sol\":9755:9823  require(spender != address(0), \"ERC20: approve to the zero address\") */\n      0x04\n      dup3\n      add\n        /* \"#utility.yul\":5201:5222   */\n      mstore\n        /* \"#utility.yul\":5258:5260   */\n      0x22\n        /* \"#utility.yul\":5238:5256   */\n      0x24\n      dup3\n      add\n        /* \"#utility.yul\":5231:5261   */\n      mstore\n        /* \"#utility.yul\":5297:5331   */\n      0x45524332303a20617070726f766520746f20746865207a65726f206164647265\n        /* \"#utility.yul\":5277:5295   */\n      0x44\n      dup3\n      add\n        /* \"#utility.yul\":5270:5332   */\n      mstore\n      shl(0xf0, 0x7373)\n        /* \"#utility.yul\":5348:5366   */\n      0x64\n      dup3\n      add\n        /* \"#utility.yul\":5341:5373   */\n      mstore\n        /* \"#utility.yul\":5390:5409   */\n      0x84\n      add\n        /* \"contracts/token/ERC20/ERC20.sol\":9755:9823  require(spender != address(0), \"ERC20: approve to the zero address\") */\n      tag_123\n        /* \"#utility.yul\":5017:5415   */\n      jump\n        /* \"contracts/token/ERC20/ERC20.sol\":9755:9823  require(spender != address(0), \"ERC20: approve to the zero address\") */\n    tag_194:\n      sub(shl(0xa0, 0x01), 0x01)\n        /* \"contracts/token/ERC20/ERC20.sol\":9836:9854  _allowances[owner] */\n      dup4\n      dup2\n      and\n      0x00\n      dup2\n      dup2\n      mstore\n        /* \"contracts/token/ERC20/ERC20.sol\":9836:9847  _allowances */\n      0x01\n        /* \"contracts/token/ERC20/ERC20.sol\":9836:9854  _allowances[owner] */\n      0x20\n      swap1\n      dup2\n      mstore\n      0x40\n      dup1\n      dup4\n      keccak256\n        /* \"contracts/token/ERC20/ERC20.sol\":9836:9863  _allowances[owner][spender] */\n      swap5\n      dup8\n      and\n      dup1\n      dup5\n      mstore\n      swap5\n      dup3\n      mstore\n      swap2\n      dup3\n      swap1\n      keccak256\n        /* \"contracts/token/ERC20/ERC20.sol\":9836:9872  _allowances[owner][spender] = amount */\n      dup6\n      swap1\n      sstore\n        /* \"contracts/token/ERC20/ERC20.sol\":9888:9920  Approval(owner, spender, amount) */\n      swap1\n      mload\n        /* \"#utility.yul\":1342:1367   */\n      dup5\n      dup2\n      mstore\n        /* \"contracts/token/ERC20/ERC20.sol\":9888:9920  Approval(owner, spender, amount) */\n      0x8c5be1e5ebec7d5bd14f71427d1e84f3dd0314c0f7b2291e5b200ac8c7c3b925\n      swap2\n        /* \"#utility.yul\":1315:1333   */\n      add\n        /* \"contracts/token/ERC20/ERC20.sol\":9888:9920  Approval(owner, spender, amount) */\n      mload(0x40)\n      dup1\n      swap2\n      sub\n      swap1\n      log3\n        /* \"contracts/token/ERC20/ERC20.sol\":9548:9928  function _approve(... */\n      pop\n      pop\n      pop\n      jump\t// out\n        /* \"contracts/access/Ownable.sol\":829:961  function _checkOwner() internal view virtual {... */\n    tag_120:\n        /* \"contracts/access/Ownable.sol\":737:743  _owner */\n      sload(0x05)\n      sub(shl(0xa0, 0x01), 0x01)\n      0x0100\n      swap1\n      swap2\n      div\n      and\n        /* \"contracts/utils/Context.sol\":173:183  msg.sender */\n      caller\n        /* \"contracts/access/Ownable.sol\":893:916  owner() == _msgSender() */\n      eq\n        /* \"contracts/access/Ownable.sol\":885:953  require(owner() == _msgSender(), \"Ownable: caller is not the owner\") */\n      tag_141\n      jumpi\n      mload(0x40)\n      shl(0xe5, 0x461bcd)\n      dup2\n      mstore\n        /* \"#utility.yul\":5622:5624   */\n      0x20\n        /* \"contracts/access/Ownable.sol\":885:953  require(owner() == _msgSender(), \"Ownable: caller is not the owner\") */\n      0x04\n      dup3\n      add\n        /* \"#utility.yul\":5604:5625   */\n      dup2\n      swap1\n      mstore\n        /* \"#utility.yul\":5641:5659   */\n      0x24\n      dup3\n      add\n        /* \"#utility.yul\":5634:5664   */\n      mstore\n        /* \"#utility.yul\":5700:5734   */\n      0x4f776e61626c653a2063616c6c6572206973206e6f7420746865206f776e6572\n        /* \"#utility.yul\":5680:5698   */\n      0x44\n      dup3\n      add\n        /* \"#utility.yul\":5673:5735   */\n      mstore\n        /* \"#utility.yul\":5752:5770   */\n      0x64\n      add\n        /* \"contracts/access/Ownable.sol\":885:953  require(owner() == _msgSender(), \"Ownable: caller is not the owner\") */\n      tag_123\n        /* \"#utility.yul\":5420:5776   */\n      jump\n        /* \"contracts/token/ERC20/ERC20.sol\":10219:10672  function _spendAllowance(... */\n    tag_128:\n        /* \"contracts/token/ERC20/ERC20.sol\":10354:10378  uint256 currentAllowance */\n      0x00\n        /* \"contracts/token/ERC20/ERC20.sol\":10381:10406  allowance(owner, spender) */\n      tag_205\n        /* \"contracts/token/ERC20/ERC20.sol\":10391:10396  owner */\n      dup5\n        /* \"contracts/token/ERC20/ERC20.sol\":10398:10405  spender */\n      dup5\n        /* \"contracts/token/ERC20/ERC20.sol\":10381:10390  allowance */\n      tag_99\n        /* \"contracts/token/ERC20/ERC20.sol\":10381:10406  allowance(owner, spender) */\n      jump\t// in\n    tag_205:\n        /* \"contracts/token/ERC20/ERC20.sol\":10354:10406  uint256 currentAllowance = allowance(owner, spender) */\n      swap1\n      pop\n      not(0x00)\n        /* \"contracts/token/ERC20/ERC20.sol\":10421:10437  currentAllowance */\n      dup2\n        /* \"contracts/token/ERC20/ERC20.sol\":10421:10458  currentAllowance != type(uint256).max */\n      eq\n        /* \"contracts/token/ERC20/ERC20.sol\":10417:10665  if (currentAllowance != type(uint256).max) {... */\n      tag_210\n      jumpi\n        /* \"contracts/token/ERC20/ERC20.sol\":10503:10509  amount */\n      dup2\n        /* \"contracts/token/ERC20/ERC20.sol\":10483:10499  currentAllowance */\n      dup2\n        /* \"contracts/token/ERC20/ERC20.sol\":10483:10509  currentAllowance >= amount */\n      lt\n      iszero\n        /* \"contracts/token/ERC20/ERC20.sol\":10475:10543  require(currentAllowance >= amount, \"ERC20: insufficient allowance\") */\n      tag_207\n      jumpi\n      mload(0x40)\n      shl(0xe5, 0x461bcd)\n      dup2\n      mstore\n        /* \"#utility.yul\":5983:5985   */\n      0x20\n        /* \"contracts/token/ERC20/ERC20.sol\":10475:10543  require(currentAllowance >= amount, \"ERC20: insufficient allowance\") */\n      0x04\n      dup3\n      add\n        /* \"#utility.yul\":5965:5986   */\n      mstore\n        /* \"#utility.yul\":6022:6024   */\n      0x1d\n        /* \"#utility.yul\":6002:6020   */\n      0x24\n      dup3\n      add\n        /* \"#utility.yul\":5995:6025   */\n      mstore\n        /* \"#utility.yul\":6061:6092   */\n      0x45524332303a20696e73756666696369656e7420616c6c6f77616e6365000000\n        /* \"#utility.yul\":6041:6059   */\n      0x44\n      dup3\n      add\n        /* \"#utility.yul\":6034:6093   */\n      mstore\n        /* \"#utility.yul\":6110:6128   */\n      0x64\n      add\n        /* \"contracts/token/ERC20/ERC20.sol\":10475:10543  require(currentAllowance >= amount, \"ERC20: insufficient allowance\") */\n      tag_123\n        /* \"#utility.yul\":5781:6134   */\n      jump\n        /* \"contracts/token/ERC20/ERC20.sol\":10475:10543  require(currentAllowance >= amount, \"ERC20: insufficient allowance\") */\n    tag_207:\n        /* \"contracts/token/ERC20/ERC20.sol\":10587:10638  _approve(owner, spender, currentAllowance - amount) */\n      tag_210\n        /* \"contracts/token/ERC20/ERC20.sol\":10596:10601  owner */\n      dup5\n        /* \"contracts/token/ERC20/ERC20.sol\":10603:10610  spender */\n      dup5\n        /* \"contracts/token/ERC20/ERC20.sol\":10631:10637  amount */\n      dup5\n        /* \"contracts/token/ERC20/ERC20.sol\":10612:10628  currentAllowance */\n      dup5\n        /* \"contracts/token/ERC20/ERC20.sol\":10612:10637  currentAllowance - amount */\n      sub\n        /* \"contracts/token/ERC20/ERC20.sol\":10587:10595  _approve */\n      tag_116\n        /* \"contracts/token/ERC20/ERC20.sol\":10587:10638  _approve(owner, spender, currentAllowance - amount) */\n      jump\t// in\n    tag_210:\n        /* \"contracts/token/ERC20/ERC20.sol\":10343:10672  {... */\n      pop\n        /* \"contracts/token/ERC20/ERC20.sol\":10219:10672  function _spendAllowance(... */\n      pop\n      pop\n      pop\n      jump\t// out\n        /* \"contracts/DexToken.sol\":1139:1843  function _transfer(address sender, address recipient, uint256 amount) internal virtual override {... */\n    tag_130:\n      sub(shl(0xa0, 0x01), 0x01)\n        /* \"contracts/DexToken.sol\":1254:1274  sender != address(0) */\n      dup4\n      and\n        /* \"contracts/DexToken.sol\":1246:1316  require(sender != address(0), \"ERC20: transfer from the zero address\") */\n      tag_212\n      jumpi\n      mload(0x40)\n      shl(0xe5, 0x461bcd)\n      dup2\n      mstore\n      0x04\n      add\n      tag_123\n      swap1\n      tag_214\n      jump\t// in\n    tag_212:\n      sub(shl(0xa0, 0x01), 0x01)\n        /* \"contracts/DexToken.sol\":1335:1358  recipient != address(0) */\n      dup3\n      and\n        /* \"contracts/DexToken.sol\":1327:1398  require(recipient != address(0), \"ERC20: transfer to the zero address\") */\n      tag_215\n      jumpi\n      mload(0x40)\n      shl(0xe5, 0x461bcd)\n      dup2\n      mstore\n      0x04\n      add\n      tag_123\n      swap1\n      tag_217\n      jump\t// in\n    tag_215:\n        /* \"contracts/DexToken.sol\":1480:1498  uint256 burnAmount */\n      0x00\n        /* \"contracts/DexToken.sol\":1521:1524  100 */\n      0x64\n        /* \"contracts/DexToken.sol\":1510:1518  burnRate */\n      sload(0x06)\n        /* \"contracts/DexToken.sol\":1501:1507  amount */\n      dup4\n        /* \"contracts/DexToken.sol\":1501:1518  amount * burnRate */\n      tag_218\n      swap2\n      swap1\n      tag_219\n      jump\t// in\n    tag_218:\n        /* \"contracts/DexToken.sol\":1501:1524  amount * burnRate / 100 */\n      tag_220\n      swap2\n      swap1\n      tag_221\n      jump\t// in\n    tag_220:\n        /* \"contracts/DexToken.sol\":1480:1524  uint256 burnAmount = amount * burnRate / 100 */\n      swap1\n      pop\n        /* \"contracts/DexToken.sol\":1602:1620  uint256 sendAmount */\n      0x00\n        /* \"contracts/DexToken.sol\":1623:1642  amount - burnAmount */\n      tag_222\n        /* \"contracts/DexToken.sol\":1480:1524  uint256 burnAmount = amount * burnRate / 100 */\n      dup3\n        /* \"contracts/DexToken.sol\":1623:1629  amount */\n      dup5\n        /* \"contracts/DexToken.sol\":1623:1642  amount - burnAmount */\n      tag_223\n      jump\t// in\n    tag_222:\n        /* \"contracts/DexToken.sol\":1602:1642  uint256 sendAmount = amount - burnAmount */\n      swap1\n      pop\n        /* \"contracts/DexToken.sol\":1699:1724  _burn(sender, burnAmount) */\n      tag_224\n        /* \"contracts/DexToken.sol\":1705:1711  sender */\n      dup6\n        /* \"contracts/DexToken.sol\":1713:1723  burnAmount */\n      dup4\n        /* \"contracts/DexToken.sol\":1699:1704  _burn */\n      tag_146\n        /* \"contracts/DexToken.sol\":1699:1724  _burn(sender, burnAmount) */\n      jump\t// in\n    tag_224:\n        /* \"contracts/DexToken.sol\":1789:1835  super._transfer(sender, recipient, sendAmount) */\n      tag_225\n        /* \"contracts/DexToken.sol\":1805:1811  sender */\n      dup6\n        /* \"contracts/DexToken.sol\":1813:1822  recipient */\n      dup6\n        /* \"contracts/DexToken.sol\":1824:1834  sendAmount */\n      dup4\n        /* \"contracts/DexToken.sol\":1789:1804  super._transfer */\n      tag_226\n        /* \"contracts/DexToken.sol\":1789:1835  super._transfer(sender, recipient, sendAmount) */\n      jump\t// in\n    tag_225:\n        /* \"contracts/DexToken.sol\":1235:1843  {... */\n      pop\n      pop\n        /* \"contracts/DexToken.sol\":1139:1843  function _transfer(address sender, address recipient, uint256 amount) internal virtual override {... */\n      pop\n      pop\n      pop\n      jump\t// out\n        /* \"contracts/security/Pausable.sol\":2009:2129  function _unpause() internal virtual whenPaused {... */\n    tag_142:\n        /* \"contracts/security/Pausable.sol\":1018:1034  _requirePaused() */\n      tag_228\n        /* \"contracts/security/Pausable.sol\":1018:1032  _requirePaused */\n      tag_229\n        /* \"contracts/security/Pausable.sol\":1018:1034  _requirePaused() */\n      jump\t// in\n    tag_228:\n        /* \"contracts/security/Pausable.sol\":2068:2075  _paused */\n      0x05\n        /* \"contracts/security/Pausable.sol\":2068:2083  _paused = false */\n      dup1\n      sload\n      not(0xff)\n      and\n      swap1\n      sstore\n        /* \"contracts/security/Pausable.sol\":2099:2121  Unpaused(_msgSender()) */\n      0x5db9ee0a495bf2e6ff9c91a7834c1ba4fdd244a5e8aa4e537bd38aeae4b073aa\n        /* \"contracts/utils/Context.sol\":173:183  msg.sender */\n      caller\n        /* \"contracts/security/Pausable.sol\":2108:2120  _msgSender() */\n    tag_231:\n        /* \"contracts/security/Pausable.sol\":2099:2121  Unpaused(_msgSender()) */\n      mload(0x40)\n      sub(shl(0xa0, 0x01), 0x01)\n        /* \"#utility.yul\":2440:2472   */\n      swap1\n      swap2\n      and\n        /* \"#utility.yul\":2422:2473   */\n      dup2\n      mstore\n        /* \"#utility.yul\":2410:2412   */\n      0x20\n        /* \"#utility.yul\":2395:2413   */\n      add\n        /* \"contracts/security/Pausable.sol\":2099:2121  Unpaused(_msgSender()) */\n      mload(0x40)\n      dup1\n      swap2\n      sub\n      swap1\n      log1\n        /* \"contracts/security/Pausable.sol\":2009:2129  function _unpause() internal virtual whenPaused {... */\n      jump\t// out\n        /* \"contracts/token/ERC20/ERC20.sol\":8435:9110  function _burn(address account, uint256 amount) internal virtual {... */\n    tag_146:\n      sub(shl(0xa0, 0x01), 0x01)\n        /* \"contracts/token/ERC20/ERC20.sol\":8519:8540  account != address(0) */\n      dup3\n      and\n        /* \"contracts/token/ERC20/ERC20.sol\":8511:8578  require(account != address(0), \"ERC20: burn from the zero address\") */\n      tag_234\n      jumpi\n      mload(0x40)\n      shl(0xe5, 0x461bcd)\n      dup2\n      mstore\n        /* \"#utility.yul\":7679:7681   */\n      0x20\n        /* \"contracts/token/ERC20/ERC20.sol\":8511:8578  require(account != address(0), \"ERC20: burn from the zero address\") */\n      0x04\n      dup3\n      add\n        /* \"#utility.yul\":7661:7682   */\n      mstore\n        /* \"#utility.yul\":7718:7720   */\n      0x21\n        /* \"#utility.yul\":7698:7716   */\n      0x24\n      dup3\n      add\n        /* \"#utility.yul\":7691:7721   */\n      mstore\n        /* \"#utility.yul\":7757:7791   */\n      0x45524332303a206275726e2066726f6d20746865207a65726f20616464726573\n        /* \"#utility.yul\":7737:7755   */\n      0x44\n      dup3\n      add\n        /* \"#utility.yul\":7730:7792   */\n      mstore\n      shl(0xf8, 0x73)\n        /* \"#utility.yul\":7808:7826   */\n      0x64\n      dup3\n      add\n        /* \"#utility.yul\":7801:7832   */\n      mstore\n        /* \"#utility.yul\":7849:7868   */\n      0x84\n      add\n        /* \"contracts/token/ERC20/ERC20.sol\":8511:8578  require(account != address(0), \"ERC20: burn from the zero address\") */\n      tag_123\n        /* \"#utility.yul\":7477:7874   */\n      jump\n        /* \"contracts/token/ERC20/ERC20.sol\":8511:8578  require(account != address(0), \"ERC20: burn from the zero address\") */\n    tag_234:\n        /* \"contracts/token/ERC20/ERC20.sol\":8591:8640  _beforeTokenTransfer(account, address(0), amount) */\n      tag_237\n        /* \"contracts/token/ERC20/ERC20.sol\":8612:8619  account */\n      dup3\n        /* \"contracts/token/ERC20/ERC20.sol\":8629:8630  0 */\n      0x00\n        /* \"contracts/token/ERC20/ERC20.sol\":8633:8639  amount */\n      dup4\n        /* \"contracts/token/ERC20/ERC20.sol\":8591:8611  _beforeTokenTransfer */\n      tag_238\n        /* \"contracts/token/ERC20/ERC20.sol\":8591:8640  _beforeTokenTransfer(account, address(0), amount) */\n      jump\t// in\n    tag_237:\n      sub(shl(0xa0, 0x01), 0x01)\n        /* \"contracts/token/ERC20/ERC20.sol\":8678:8696  _balances[account] */\n      dup3\n      and\n        /* \"contracts/token/ERC20/ERC20.sol\":8653:8675  uint256 accountBalance */\n      0x00\n        /* \"contracts/token/ERC20/ERC20.sol\":8678:8696  _balances[account] */\n      swap1\n      dup2\n      mstore\n      0x20\n      dup2\n      swap1\n      mstore\n      0x40\n      swap1\n      keccak256\n      sload\n        /* \"contracts/token/ERC20/ERC20.sol\":8715:8739  accountBalance >= amount */\n      dup2\n      dup2\n      lt\n      iszero\n        /* \"contracts/token/ERC20/ERC20.sol\":8707:8778  require(accountBalance >= amount, \"ERC20: burn amount exceeds balance\") */\n      tag_239\n      jumpi\n      mload(0x40)\n      shl(0xe5, 0x461bcd)\n      dup2\n      mstore\n        /* \"#utility.yul\":8081:8083   */\n      0x20\n        /* \"contracts/token/ERC20/ERC20.sol\":8707:8778  require(accountBalance >= amount, \"ERC20: burn amount exceeds balance\") */\n      0x04\n      dup3\n      add\n        /* \"#utility.yul\":8063:8084   */\n      mstore\n        /* \"#utility.yul\":8120:8122   */\n      0x22\n        /* \"#utility.yul\":8100:8118   */\n      0x24\n      dup3\n      add\n        /* \"#utility.yul\":8093:8123   */\n      mstore\n        /* \"#utility.yul\":8159:8193   */\n      0x45524332303a206275726e20616d6f756e7420657863656564732062616c616e\n        /* \"#utility.yul\":8139:8157   */\n      0x44\n      dup3\n      add\n        /* \"#utility.yul\":8132:8194   */\n      mstore\n      shl(0xf0, 0x6365)\n        /* \"#utility.yul\":8210:8228   */\n      0x64\n      dup3\n      add\n        /* \"#utility.yul\":8203:8235   */\n      mstore\n        /* \"#utility.yul\":8252:8271   */\n      0x84\n      add\n        /* \"contracts/token/ERC20/ERC20.sol\":8707:8778  require(accountBalance >= amount, \"ERC20: burn amount exceeds balance\") */\n      tag_123\n        /* \"#utility.yul\":7879:8277   */\n      jump\n        /* \"contracts/token/ERC20/ERC20.sol\":8707:8778  require(accountBalance >= amount, \"ERC20: burn amount exceeds balance\") */\n    tag_239:\n      sub(shl(0xa0, 0x01), 0x01)\n        /* \"contracts/token/ERC20/ERC20.sol\":8814:8832  _balances[account] */\n      dup4\n      and\n        /* \"contracts/token/ERC20/ERC20.sol\":8814:8823  _balances */\n      0x00\n        /* \"contracts/token/ERC20/ERC20.sol\":8814:8832  _balances[account] */\n      dup2\n      dup2\n      mstore\n      0x20\n      dup2\n      dup2\n      mstore\n      0x40\n      dup1\n      dup4\n      keccak256\n        /* \"contracts/token/ERC20/ERC20.sol\":8835:8858  accountBalance - amount */\n      dup7\n      dup7\n      sub\n        /* \"contracts/token/ERC20/ERC20.sol\":8814:8858  _balances[account] = accountBalance - amount */\n      swap1\n      sstore\n        /* \"contracts/token/ERC20/ERC20.sol\":8953:8965  _totalSupply */\n      0x02\n        /* \"contracts/token/ERC20/ERC20.sol\":8953:8975  _totalSupply -= amount */\n      dup1\n      sload\n      dup8\n      swap1\n      sub\n      swap1\n      sstore\n        /* \"contracts/token/ERC20/ERC20.sol\":9004:9041  Transfer(account, address(0), amount) */\n      mload\n        /* \"#utility.yul\":1342:1367   */\n      dup6\n      dup2\n      mstore\n        /* \"contracts/token/ERC20/ERC20.sol\":8814:8823  _balances */\n      swap2\n      swap3\n        /* \"contracts/token/ERC20/ERC20.sol\":8814:8832  _balances[account] */\n      swap2\n        /* \"contracts/token/ERC20/ERC20.sol\":9004:9041  Transfer(account, address(0), amount) */\n      0xddf252ad1be2c89b69c2b068fc378daa952ba7f163c4a11628f55a4df523b3ef\n      swap2\n        /* \"#utility.yul\":1315:1333   */\n      add\n        /* \"contracts/token/ERC20/ERC20.sol\":9004:9041  Transfer(account, address(0), amount) */\n      mload(0x40)\n      dup1\n      swap2\n      sub\n      swap1\n      log3\n        /* \"contracts/token/ERC20/ERC20.sol\":11272:11397  function _beforeTokenTransfer(... */\n      pop\n      pop\n      pop\n      jump\t// out\n        /* \"contracts/access/Ownable.sol\":1931:2122  function _transferOwnership(address newOwner) internal virtual {... */\n    tag_153:\n        /* \"contracts/access/Ownable.sol\":2024:2030  _owner */\n      0x05\n      dup1\n      sload\n      sub(shl(0xa0, 0x01), 0x01)\n        /* \"contracts/access/Ownable.sol\":2041:2058  _owner = newOwner */\n      dup4\n      dup2\n      and\n        /* \"contracts/access/Ownable.sol\":2024:2030  _owner */\n      0x0100\n        /* \"contracts/access/Ownable.sol\":2041:2058  _owner = newOwner */\n      dup2\n      dup2\n      mul\n      not(sub(shl(0xa8, 0x01), 0x0100))\n      dup6\n      and\n      or\n      swap1\n      swap5\n      sstore\n        /* \"contracts/access/Ownable.sol\":2074:2114  OwnershipTransferred(oldOwner, newOwner) */\n      mload(0x40)\n        /* \"contracts/access/Ownable.sol\":2024:2030  _owner */\n      swap4\n      swap1\n      swap3\n      div\n      and\n      swap2\n      dup3\n      swap1\n        /* \"contracts/access/Ownable.sol\":2074:2114  OwnershipTransferred(oldOwner, newOwner) */\n      0x8be0079c531659141344cd1fd0a4f28419497f9722a3daafe3b4186f6b6457e0\n      swap1\n        /* \"contracts/access/Ownable.sol\":2005:2021  address oldOwner */\n      0x00\n      swap1\n        /* \"contracts/access/Ownable.sol\":2074:2114  OwnershipTransferred(oldOwner, newOwner) */\n      log3\n        /* \"contracts/access/Ownable.sol\":1994:2122  {... */\n      pop\n        /* \"contracts/access/Ownable.sol\":1931:2122  function _transferOwnership(address newOwner) internal virtual {... */\n      pop\n      jump\t// out\n        /* \"contracts/security/Pausable.sol\":1750:1868  function _pause() internal virtual whenNotPaused {... */\n    tag_162:\n        /* \"contracts/security/Pausable.sol\":759:778  _requireNotPaused() */\n      tag_247\n        /* \"contracts/security/Pausable.sol\":759:776  _requireNotPaused */\n      tag_248\n        /* \"contracts/security/Pausable.sol\":759:778  _requireNotPaused() */\n      jump\t// in\n    tag_247:\n        /* \"contracts/security/Pausable.sol\":1810:1817  _paused */\n      0x05\n        /* \"contracts/security/Pausable.sol\":1810:1824  _paused = true */\n      dup1\n      sload\n      not(0xff)\n      and\n        /* \"contracts/security/Pausable.sol\":1820:1824  true */\n      0x01\n        /* \"contracts/security/Pausable.sol\":1810:1824  _paused = true */\n      or\n      swap1\n      sstore\n        /* \"contracts/security/Pausable.sol\":1840:1860  Paused(_msgSender()) */\n      0x62e78cea01bee320cd4e420270b5ea74000d11b0c9f74754ebdbfc544b05a258\n        /* \"contracts/security/Pausable.sol\":1847:1859  _msgSender() */\n      tag_231\n        /* \"contracts/utils/Context.sol\":173:183  msg.sender */\n      caller\n      swap1\n        /* \"contracts/utils/Context.sol\":93:191  function _msgSender() internal view virtual returns (address) {... */\n      jump\n        /* \"contracts/token/ERC20/ERC20.sol\":6427:7267  function _transfer(... */\n    tag_226:\n      sub(shl(0xa0, 0x01), 0x01)\n        /* \"contracts/token/ERC20/ERC20.sol\":6558:6576  from != address(0) */\n      dup4\n      and\n        /* \"contracts/token/ERC20/ERC20.sol\":6550:6618  require(from != address(0), \"ERC20: transfer from the zero address\") */\n      tag_253\n      jumpi\n      mload(0x40)\n      shl(0xe5, 0x461bcd)\n      dup2\n      mstore\n      0x04\n      add\n      tag_123\n      swap1\n      tag_214\n      jump\t// in\n    tag_253:\n      sub(shl(0xa0, 0x01), 0x01)\n        /* \"contracts/token/ERC20/ERC20.sol\":6637:6653  to != address(0) */\n      dup3\n      and\n        /* \"contracts/token/ERC20/ERC20.sol\":6629:6693  require(to != address(0), \"ERC20: transfer to the zero address\") */\n      tag_255\n      jumpi\n      mload(0x40)\n      shl(0xe5, 0x461bcd)\n      dup2\n      mstore\n      0x04\n      add\n      tag_123\n      swap1\n      tag_217\n      jump\t// in\n    tag_255:\n        /* \"contracts/token/ERC20/ERC20.sol\":6706:6744  _beforeTokenTransfer(from, to, amount) */\n      tag_257\n        /* \"contracts/token/ERC20/ERC20.sol\":6727:6731  from */\n      dup4\n        /* \"contracts/token/ERC20/ERC20.sol\":6733:6735  to */\n      dup4\n        /* \"contracts/token/ERC20/ERC20.sol\":6737:6743  amount */\n      dup4\n        /* \"contracts/token/ERC20/ERC20.sol\":6706:6726  _beforeTokenTransfer */\n      tag_238\n        /* \"contracts/token/ERC20/ERC20.sol\":6706:6744  _beforeTokenTransfer(from, to, amount) */\n      jump\t// in\n    tag_257:\n      sub(shl(0xa0, 0x01), 0x01)\n        /* \"contracts/token/ERC20/ERC20.sol\":6779:6794  _balances[from] */\n      dup4\n      and\n        /* \"contracts/token/ERC20/ERC20.sol\":6757:6776  uint256 fromBalance */\n      0x00\n        /* \"contracts/token/ERC20/ERC20.sol\":6779:6794  _balances[from] */\n      swap1\n      dup2\n      mstore\n      0x20\n      dup2\n      swap1\n      mstore\n      0x40\n      swap1\n      keccak256\n      sload\n        /* \"contracts/token/ERC20/ERC20.sol\":6813:6834  fromBalance >= amount */\n      dup2\n      dup2\n      lt\n      iszero\n        /* \"contracts/token/ERC20/ERC20.sol\":6805:6877  require(fromBalance >= amount, \"ERC20: transfer amount exceeds balance\") */\n      tag_258\n      jumpi\n      mload(0x40)\n      shl(0xe5, 0x461bcd)\n      dup2\n      mstore\n        /* \"#utility.yul\":8484:8486   */\n      0x20\n        /* \"contracts/token/ERC20/ERC20.sol\":6805:6877  require(fromBalance >= amount, \"ERC20: transfer amount exceeds balance\") */\n      0x04\n      dup3\n      add\n        /* \"#utility.yul\":8466:8487   */\n      mstore\n        /* \"#utility.yul\":8523:8525   */\n      0x26\n        /* \"#utility.yul\":8503:8521   */\n      0x24\n      dup3\n      add\n        /* \"#utility.yul\":8496:8526   */\n      mstore\n        /* \"#utility.yul\":8562:8596   */\n      0x45524332303a207472616e7366657220616d6f756e7420657863656564732062\n        /* \"#utility.yul\":8542:8560   */\n      0x44\n      dup3\n      add\n        /* \"#utility.yul\":8535:8597   */\n      mstore\n      shl(0xd0, 0x616c616e6365)\n        /* \"#utility.yul\":8613:8631   */\n      0x64\n      dup3\n      add\n        /* \"#utility.yul\":8606:8642   */\n      mstore\n        /* \"#utility.yul\":8659:8678   */\n      0x84\n      add\n        /* \"contracts/token/ERC20/ERC20.sol\":6805:6877  require(fromBalance >= amount, \"ERC20: transfer amount exceeds balance\") */\n      tag_123\n        /* \"#utility.yul\":8282:8684   */\n      jump\n        /* \"contracts/token/ERC20/ERC20.sol\":6805:6877  require(fromBalance >= amount, \"ERC20: transfer amount exceeds balance\") */\n    tag_258:\n      sub(shl(0xa0, 0x01), 0x01)\n        /* \"contracts/token/ERC20/ERC20.sol\":6913:6928  _balances[from] */\n      dup5\n      dup2\n      and\n        /* \"contracts/token/ERC20/ERC20.sol\":6913:6922  _balances */\n      0x00\n        /* \"contracts/token/ERC20/ERC20.sol\":6913:6928  _balances[from] */\n      dup2\n      dup2\n      mstore\n      0x20\n      dup2\n      dup2\n      mstore\n      0x40\n      dup1\n      dup4\n      keccak256\n        /* \"contracts/token/ERC20/ERC20.sol\":6931:6951  fromBalance - amount */\n      dup8\n      dup8\n      sub\n        /* \"contracts/token/ERC20/ERC20.sol\":6913:6951  _balances[from] = fromBalance - amount */\n      swap1\n      sstore\n        /* \"contracts/token/ERC20/ERC20.sol\":7131:7144  _balances[to] */\n      swap4\n      dup8\n      and\n      dup1\n      dup4\n      mstore\n      swap2\n      dup5\n      swap1\n      keccak256\n        /* \"contracts/token/ERC20/ERC20.sol\":7131:7154  _balances[to] += amount */\n      dup1\n      sload\n      dup8\n      add\n      swap1\n      sstore\n        /* \"contracts/token/ERC20/ERC20.sol\":7183:7209  Transfer(from, to, amount) */\n      swap3\n      mload\n        /* \"#utility.yul\":1342:1367   */\n      dup6\n      dup2\n      mstore\n        /* \"contracts/token/ERC20/ERC20.sol\":7131:7144  _balances[to] */\n      swap1\n      swap3\n        /* \"contracts/token/ERC20/ERC20.sol\":7183:7209  Transfer(from, to, amount) */\n      0xddf252ad1be2c89b69c2b068fc378daa952ba7f163c4a11628f55a4df523b3ef\n      swap2\n        /* \"#utility.yul\":1315:1333   */\n      add\n        /* \"contracts/token/ERC20/ERC20.sol\":7183:7209  Transfer(from, to, amount) */\n      mload(0x40)\n      dup1\n      swap2\n      sub\n      swap1\n      log3\n        /* \"contracts/token/ERC20/ERC20.sol\":7222:7259  _afterTokenTransfer(from, to, amount) */\n      tag_210\n        /* \"contracts/token/ERC20/ERC20.sol\":11272:11397  function _beforeTokenTransfer(... */\n      jump\n        /* \"contracts/security/Pausable.sol\":1498:1606  function _requirePaused() internal view virtual {... */\n    tag_229:\n        /* \"contracts/security/Pausable.sol\":1225:1232  _paused */\n      and(0xff, sload(0x05))\n        /* \"contracts/security/Pausable.sol\":1557:1598  require(paused(), \"Pausable: not paused\") */\n      tag_141\n      jumpi\n      mload(0x40)\n      shl(0xe5, 0x461bcd)\n      dup2\n      mstore\n        /* \"#utility.yul\":8891:8893   */\n      0x20\n        /* \"contracts/security/Pausable.sol\":1557:1598  require(paused(), \"Pausable: not paused\") */\n      0x04\n      dup3\n      add\n        /* \"#utility.yul\":8873:8894   */\n      mstore\n        /* \"#utility.yul\":8930:8932   */\n      0x14\n        /* \"#utility.yul\":8910:8928   */\n      0x24\n      dup3\n      add\n        /* \"#utility.yul\":8903:8933   */\n      mstore\n      shl(0x62, 0x14185d5cd8589b194e881b9bdd081c185d5cd959)\n        /* \"#utility.yul\":8949:8967   */\n      0x44\n      dup3\n      add\n        /* \"#utility.yul\":8942:8992   */\n      mstore\n        /* \"#utility.yul\":9009:9027   */\n      0x64\n      add\n        /* \"contracts/security/Pausable.sol\":1557:1598  require(paused(), \"Pausable: not paused\") */\n      tag_123\n        /* \"#utility.yul\":8689:9033   */\n      jump\n        /* \"contracts/DexToken.sol\":614:813  function _beforeTokenTransfer(address from, address to, uint256 amount)... */\n    tag_238:\n        /* \"contracts/security/Pausable.sol\":759:778  _requireNotPaused() */\n      tag_104\n        /* \"contracts/security/Pausable.sol\":1313:1421  function _requireNotPaused() internal view virtual {... */\n    tag_248:\n        /* \"contracts/security/Pausable.sol\":1225:1232  _paused */\n      and(0xff, sload(0x05))\n        /* \"contracts/security/Pausable.sol\":1383:1392  !paused() */\n      iszero\n        /* \"contracts/security/Pausable.sol\":1375:1413  require(!paused(), \"Pausable: paused\") */\n      tag_141\n      jumpi\n      mload(0x40)\n      shl(0xe5, 0x461bcd)\n      dup2\n      mstore\n        /* \"#utility.yul\":9240:9242   */\n      0x20\n        /* \"contracts/security/Pausable.sol\":1375:1413  require(!paused(), \"Pausable: paused\") */\n      0x04\n      dup3\n      add\n        /* \"#utility.yul\":9222:9243   */\n      mstore\n        /* \"#utility.yul\":9279:9281   */\n      0x10\n        /* \"#utility.yul\":9259:9277   */\n      0x24\n      dup3\n      add\n        /* \"#utility.yul\":9252:9282   */\n      mstore\n      shl(0x82, 0x14185d5cd8589b194e881c185d5cd959)\n        /* \"#utility.yul\":9298:9316   */\n      0x44\n      dup3\n      add\n        /* \"#utility.yul\":9291:9337   */\n      mstore\n        /* \"#utility.yul\":9354:9372   */\n      0x64\n      add\n        /* \"contracts/security/Pausable.sol\":1375:1413  require(!paused(), \"Pausable: paused\") */\n      tag_123\n        /* \"#utility.yul\":9038:9378   */\n      jump\n        /* \"#utility.yul\":14:562   */\n    tag_30:\n        /* \"#utility.yul\":126:130   */\n      0x00\n        /* \"#utility.yul\":155:157   */\n      0x20\n        /* \"#utility.yul\":184:186   */\n      dup1\n        /* \"#utility.yul\":173:182   */\n      dup4\n        /* \"#utility.yul\":166:187   */\n      mstore\n        /* \"#utility.yul\":216:222   */\n      dup4\n        /* \"#utility.yul\":210:223   */\n      mload\n        /* \"#utility.yul\":259:265   */\n      dup1\n        /* \"#utility.yul\":254:256   */\n      dup3\n        /* \"#utility.yul\":243:252   */\n      dup6\n        /* \"#utility.yul\":239:257   */\n      add\n        /* \"#utility.yul\":232:266   */\n      mstore\n        /* \"#utility.yul\":284:285   */\n      0x00\n        /* \"#utility.yul\":294:434   */\n    tag_282:\n        /* \"#utility.yul\":308:314   */\n      dup2\n        /* \"#utility.yul\":305:306   */\n      dup2\n        /* \"#utility.yul\":302:315   */\n      lt\n        /* \"#utility.yul\":294:434   */\n      iszero\n      tag_284\n      jumpi\n        /* \"#utility.yul\":403:417   */\n      dup6\n      dup2\n      add\n        /* \"#utility.yul\":399:422   */\n      dup4\n      add\n        /* \"#utility.yul\":393:423   */\n      mload\n        /* \"#utility.yul\":369:386   */\n      dup6\n      dup3\n      add\n        /* \"#utility.yul\":388:390   */\n      0x40\n        /* \"#utility.yul\":365:391   */\n      add\n        /* \"#utility.yul\":358:424   */\n      mstore\n        /* \"#utility.yul\":323:333   */\n      dup3\n      add\n        /* \"#utility.yul\":294:434   */\n      jump(tag_282)\n    tag_284:\n        /* \"#utility.yul\":298:301   */\n      pop\n        /* \"#utility.yul\":483:484   */\n      0x00\n        /* \"#utility.yul\":478:480   */\n      0x40\n        /* \"#utility.yul\":469:475   */\n      dup3\n        /* \"#utility.yul\":458:467   */\n      dup7\n        /* \"#utility.yul\":454:476   */\n      add\n        /* \"#utility.yul\":450:481   */\n      add\n        /* \"#utility.yul\":443:485   */\n      mstore\n        /* \"#utility.yul\":553:555   */\n      0x40\n        /* \"#utility.yul\":546:548   */\n      0x1f\n        /* \"#utility.yul\":542:549   */\n      not\n        /* \"#utility.yul\":537:539   */\n      0x1f\n        /* \"#utility.yul\":529:535   */\n      dup4\n        /* \"#utility.yul\":525:540   */\n      add\n        /* \"#utility.yul\":521:550   */\n      and\n        /* \"#utility.yul\":510:519   */\n      dup6\n        /* \"#utility.yul\":506:551   */\n      add\n        /* \"#utility.yul\":502:556   */\n      add\n        /* \"#utility.yul\":494:556   */\n      swap3\n      pop\n      pop\n      pop\n        /* \"#utility.yul\":14:562   */\n      swap3\n      swap2\n      pop\n      pop\n      jump\t// out\n        /* \"#utility.yul\":567:740   */\n    tag_278:\n        /* \"#utility.yul\":635:655   */\n      dup1\n      calldataload\n      sub(shl(0xa0, 0x01), 0x01)\n        /* \"#utility.yul\":684:715   */\n      dup2\n      and\n        /* \"#utility.yul\":674:716   */\n      dup2\n      eq\n        /* \"#utility.yul\":664:734   */\n      tag_286\n      jumpi\n        /* \"#utility.yul\":730:731   */\n      0x00\n        /* \"#utility.yul\":727:728   */\n      dup1\n        /* \"#utility.yul\":720:732   */\n      revert\n        /* \"#utility.yul\":664:734   */\n    tag_286:\n        /* \"#utility.yul\":567:740   */\n      swap2\n      swap1\n      pop\n      jump\t// out\n        /* \"#utility.yul\":745:999   */\n    tag_33:\n        /* \"#utility.yul\":813:819   */\n      0x00\n        /* \"#utility.yul\":821:827   */\n      dup1\n        /* \"#utility.yul\":874:876   */\n      0x40\n        /* \"#utility.yul\":862:871   */\n      dup4\n        /* \"#utility.yul\":853:860   */\n      dup6\n        /* \"#utility.yul\":849:872   */\n      sub\n        /* \"#utility.yul\":845:877   */\n      slt\n        /* \"#utility.yul\":842:894   */\n      iszero\n      tag_288\n      jumpi\n        /* \"#utility.yul\":890:891   */\n      0x00\n        /* \"#utility.yul\":887:888   */\n      dup1\n        /* \"#utility.yul\":880:892   */\n      revert\n        /* \"#utility.yul\":842:894   */\n    tag_288:\n        /* \"#utility.yul\":913:942   */\n      tag_289\n        /* \"#utility.yul\":932:941   */\n      dup4\n        /* \"#utility.yul\":913:942   */\n      tag_278\n      jump\t// in\n    tag_289:\n        /* \"#utility.yul\":903:942   */\n      swap5\n        /* \"#utility.yul\":989:991   */\n      0x20\n        /* \"#utility.yul\":974:992   */\n      swap4\n      swap1\n      swap4\n      add\n        /* \"#utility.yul\":961:993   */\n      calldataload\n      swap4\n      pop\n      pop\n      pop\n        /* \"#utility.yul\":745:999   */\n      jump\t// out\n        /* \"#utility.yul\":1378:1558   */\n    tag_43:\n        /* \"#utility.yul\":1437:1443   */\n      0x00\n        /* \"#utility.yul\":1490:1492   */\n      0x20\n        /* \"#utility.yul\":1478:1487   */\n      dup3\n        /* \"#utility.yul\":1469:1476   */\n      dup5\n        /* \"#utility.yul\":1465:1488   */\n      sub\n        /* \"#utility.yul\":1461:1493   */\n      slt\n        /* \"#utility.yul\":1458:1510   */\n      iszero\n      tag_293\n      jumpi\n        /* \"#utility.yul\":1506:1507   */\n      0x00\n        /* \"#utility.yul\":1503:1504   */\n      dup1\n        /* \"#utility.yul\":1496:1508   */\n      revert\n        /* \"#utility.yul\":1458:1510   */\n    tag_293:\n      pop\n        /* \"#utility.yul\":1529:1552   */\n      calldataload\n      swap2\n        /* \"#utility.yul\":1378:1558   */\n      swap1\n      pop\n      jump\t// out\n        /* \"#utility.yul\":1563:1891   */\n    tag_47:\n        /* \"#utility.yul\":1640:1646   */\n      0x00\n        /* \"#utility.yul\":1648:1654   */\n      dup1\n        /* \"#utility.yul\":1656:1662   */\n      0x00\n        /* \"#utility.yul\":1709:1711   */\n      0x60\n        /* \"#utility.yul\":1697:1706   */\n      dup5\n        /* \"#utility.yul\":1688:1695   */\n      dup7\n        /* \"#utility.yul\":1684:1707   */\n      sub\n        /* \"#utility.yul\":1680:1712   */\n      slt\n        /* \"#utility.yul\":1677:1729   */\n      iszero\n      tag_295\n      jumpi\n        /* \"#utility.yul\":1725:1726   */\n      0x00\n        /* \"#utility.yul\":1722:1723   */\n      dup1\n        /* \"#utility.yul\":1715:1727   */\n      revert\n        /* \"#utility.yul\":1677:1729   */\n    tag_295:\n        /* \"#utility.yul\":1748:1777   */\n      tag_296\n        /* \"#utility.yul\":1767:1776   */\n      dup5\n        /* \"#utility.yul\":1748:1777   */\n      tag_278\n      jump\t// in\n    tag_296:\n        /* \"#utility.yul\":1738:1777   */\n      swap3\n      pop\n        /* \"#utility.yul\":1796:1834   */\n      tag_297\n        /* \"#utility.yul\":1830:1832   */\n      0x20\n        /* \"#utility.yul\":1819:1828   */\n      dup6\n        /* \"#utility.yul\":1815:1833   */\n      add\n        /* \"#utility.yul\":1796:1834   */\n      tag_278\n      jump\t// in\n    tag_297:\n        /* \"#utility.yul\":1786:1834   */\n      swap2\n      pop\n        /* \"#utility.yul\":1881:1883   */\n      0x40\n        /* \"#utility.yul\":1870:1879   */\n      dup5\n        /* \"#utility.yul\":1866:1884   */\n      add\n        /* \"#utility.yul\":1853:1885   */\n      calldataload\n        /* \"#utility.yul\":1843:1885   */\n      swap1\n      pop\n        /* \"#utility.yul\":1563:1891   */\n      swap3\n      pop\n      swap3\n      pop\n      swap3\n      jump\t// out\n        /* \"#utility.yul\":2085:2271   */\n    tag_68:\n        /* \"#utility.yul\":2144:2150   */\n      0x00\n        /* \"#utility.yul\":2197:2199   */\n      0x20\n        /* \"#utility.yul\":2185:2194   */\n      dup3\n        /* \"#utility.yul\":2176:2183   */\n      dup5\n        /* \"#utility.yul\":2172:2195   */\n      sub\n        /* \"#utility.yul\":2168:2200   */\n      slt\n        /* \"#utility.yul\":2165:2217   */\n      iszero\n      tag_300\n      jumpi\n        /* \"#utility.yul\":2213:2214   */\n      0x00\n        /* \"#utility.yul\":2210:2211   */\n      dup1\n        /* \"#utility.yul\":2203:2215   */\n      revert\n        /* \"#utility.yul\":2165:2217   */\n    tag_300:\n        /* \"#utility.yul\":2236:2265   */\n      tag_301\n        /* \"#utility.yul\":2255:2264   */\n      dup3\n        /* \"#utility.yul\":2236:2265   */\n      tag_278\n      jump\t// in\n    tag_301:\n        /* \"#utility.yul\":2226:2265   */\n      swap4\n        /* \"#utility.yul\":2085:2271   */\n      swap3\n      pop\n      pop\n      pop\n      jump\t// out\n        /* \"#utility.yul\":2484:2744   */\n    tag_98:\n        /* \"#utility.yul\":2552:2558   */\n      0x00\n        /* \"#utility.yul\":2560:2566   */\n      dup1\n        /* \"#utility.yul\":2613:2615   */\n      0x40\n        /* \"#utility.yul\":2601:2610   */\n      dup4\n        /* \"#utility.yul\":2592:2599   */\n      dup6\n        /* \"#utility.yul\":2588:2611   */\n      sub\n        /* \"#utility.yul\":2584:2616   */\n      slt\n        /* \"#utility.yul\":2581:2633   */\n      iszero\n      tag_304\n      jumpi\n        /* \"#utility.yul\":2629:2630   */\n      0x00\n        /* \"#utility.yul\":2626:2627   */\n      dup1\n        /* \"#utility.yul\":2619:2631   */\n      revert\n        /* \"#utility.yul\":2581:2633   */\n    tag_304:\n        /* \"#utility.yul\":2652:2681   */\n      tag_305\n        /* \"#utility.yul\":2671:2680   */\n      dup4\n        /* \"#utility.yul\":2652:2681   */\n      tag_278\n      jump\t// in\n    tag_305:\n        /* \"#utility.yul\":2642:2681   */\n      swap2\n      pop\n        /* \"#utility.yul\":2700:2738   */\n      tag_306\n        /* \"#utility.yul\":2734:2736   */\n      0x20\n        /* \"#utility.yul\":2723:2732   */\n      dup5\n        /* \"#utility.yul\":2719:2737   */\n      add\n        /* \"#utility.yul\":2700:2738   */\n      tag_278\n      jump\t// in\n    tag_306:\n        /* \"#utility.yul\":2690:2738   */\n      swap1\n      pop\n        /* \"#utility.yul\":2484:2744   */\n      swap3\n      pop\n      swap3\n      swap1\n      pop\n      jump\t// out\n        /* \"#utility.yul\":2749:3129   */\n    tag_107:\n        /* \"#utility.yul\":2828:2829   */\n      0x01\n        /* \"#utility.yul\":2824:2836   */\n      dup2\n      dup2\n      shr\n      swap1\n        /* \"#utility.yul\":2871:2883   */\n      dup3\n      and\n      dup1\n        /* \"#utility.yul\":2892:2953   */\n      tag_308\n      jumpi\n        /* \"#utility.yul\":2946:2950   */\n      0x7f\n        /* \"#utility.yul\":2938:2944   */\n      dup3\n        /* \"#utility.yul\":2934:2951   */\n      and\n        /* \"#utility.yul\":2924:2951   */\n      swap2\n      pop\n        /* \"#utility.yul\":2892:2953   */\n    tag_308:\n        /* \"#utility.yul\":2999:3001   */\n      0x20\n        /* \"#utility.yul\":2991:2997   */\n      dup3\n        /* \"#utility.yul\":2988:3002   */\n      lt\n        /* \"#utility.yul\":2968:2986   */\n      dup2\n        /* \"#utility.yul\":2965:3003   */\n      sub\n        /* \"#utility.yul\":2962:3123   */\n      tag_309\n      jumpi\n        /* \"#utility.yul\":3045:3055   */\n      0x4e487b71\n        /* \"#utility.yul\":3040:3043   */\n      0xe0\n        /* \"#utility.yul\":3036:3056   */\n      shl\n        /* \"#utility.yul\":3033:3034   */\n      0x00\n        /* \"#utility.yul\":3026:3057   */\n      mstore\n        /* \"#utility.yul\":3080:3084   */\n      0x22\n        /* \"#utility.yul\":3077:3078   */\n      0x04\n        /* \"#utility.yul\":3070:3085   */\n      mstore\n        /* \"#utility.yul\":3108:3112   */\n      0x24\n        /* \"#utility.yul\":3105:3106   */\n      0x00\n        /* \"#utility.yul\":3098:3113   */\n      revert\n        /* \"#utility.yul\":2962:3123   */\n    tag_309:\n      pop\n        /* \"#utility.yul\":2749:3129   */\n      swap2\n      swap1\n      pop\n      jump\t// out\n        /* \"#utility.yul\":3537:3664   */\n    tag_279:\n        /* \"#utility.yul\":3598:3608   */\n      0x4e487b71\n        /* \"#utility.yul\":3593:3596   */\n      0xe0\n        /* \"#utility.yul\":3589:3609   */\n      shl\n        /* \"#utility.yul\":3586:3587   */\n      0x00\n        /* \"#utility.yul\":3579:3610   */\n      mstore\n        /* \"#utility.yul\":3629:3633   */\n      0x11\n        /* \"#utility.yul\":3626:3627   */\n      0x04\n        /* \"#utility.yul\":3619:3634   */\n      mstore\n        /* \"#utility.yul\":3653:3657   */\n      0x24\n        /* \"#utility.yul\":3650:3651   */\n      0x00\n        /* \"#utility.yul\":3643:3658   */\n      revert\n        /* \"#utility.yul\":3669:3794   */\n    tag_137:\n        /* \"#utility.yul\":3734:3743   */\n      dup1\n      dup3\n      add\n        /* \"#utility.yul\":3755:3765   */\n      dup1\n      dup3\n      gt\n        /* \"#utility.yul\":3752:3788   */\n      iszero\n      tag_112\n      jumpi\n        /* \"#utility.yul\":3768:3786   */\n      tag_112\n      tag_279\n      jump\t// in\n        /* \"#utility.yul\":6139:6540   */\n    tag_214:\n        /* \"#utility.yul\":6341:6343   */\n      0x20\n        /* \"#utility.yul\":6323:6344   */\n      dup1\n      dup3\n      mstore\n        /* \"#utility.yul\":6380:6382   */\n      0x25\n        /* \"#utility.yul\":6360:6378   */\n      swap1\n      dup3\n      add\n        /* \"#utility.yul\":6353:6383   */\n      mstore\n        /* \"#utility.yul\":6419:6453   */\n      0x45524332303a207472616e736665722066726f6d20746865207a65726f206164\n        /* \"#utility.yul\":6414:6416   */\n      0x40\n        /* \"#utility.yul\":6399:6417   */\n      dup3\n      add\n        /* \"#utility.yul\":6392:6454   */\n      mstore\n      shl(0xd8, 0x6472657373)\n        /* \"#utility.yul\":6485:6487   */\n      0x60\n        /* \"#utility.yul\":6470:6488   */\n      dup3\n      add\n        /* \"#utility.yul\":6463:6498   */\n      mstore\n        /* \"#utility.yul\":6530:6533   */\n      0x80\n        /* \"#utility.yul\":6515:6534   */\n      add\n      swap1\n        /* \"#utility.yul\":6139:6540   */\n      jump\t// out\n        /* \"#utility.yul\":6545:6944   */\n    tag_217:\n        /* \"#utility.yul\":6747:6749   */\n      0x20\n        /* \"#utility.yul\":6729:6750   */\n      dup1\n      dup3\n      mstore\n        /* \"#utility.yul\":6786:6788   */\n      0x23\n        /* \"#utility.yul\":6766:6784   */\n      swap1\n      dup3\n      add\n        /* \"#utility.yul\":6759:6789   */\n      mstore\n        /* \"#utility.yul\":6825:6859   */\n      0x45524332303a207472616e7366657220746f20746865207a65726f2061646472\n        /* \"#utility.yul\":6820:6822   */\n      0x40\n        /* \"#utility.yul\":6805:6823   */\n      dup3\n      add\n        /* \"#utility.yul\":6798:6860   */\n      mstore\n      shl(0xe8, 0x657373)\n        /* \"#utility.yul\":6891:6893   */\n      0x60\n        /* \"#utility.yul\":6876:6894   */\n      dup3\n      add\n        /* \"#utility.yul\":6869:6902   */\n      mstore\n        /* \"#utility.yul\":6934:6937   */\n      0x80\n        /* \"#utility.yul\":6919:6938   */\n      add\n      swap1\n        /* \"#utility.yul\":6545:6944   */\n      jump\t// out\n        /* \"#utility.yul\":6949:7117   */\n    tag_219:\n        /* \"#utility.yul\":7022:7031   */\n      dup1\n      dup3\n      mul\n        /* \"#utility.yul\":7053:7062   */\n      dup2\n      iszero\n        /* \"#utility.yul\":7070:7085   */\n      dup3\n      dup3\n      div\n        /* \"#utility.yul\":7064:7086   */\n      dup5\n      eq\n        /* \"#utility.yul\":7050:7087   */\n      or\n        /* \"#utility.yul\":7040:7111   */\n      tag_112\n      jumpi\n        /* \"#utility.yul\":7091:7109   */\n      tag_112\n      tag_279\n      jump\t// in\n        /* \"#utility.yul\":7122:7339   */\n    tag_221:\n        /* \"#utility.yul\":7162:7163   */\n      0x00\n        /* \"#utility.yul\":7188:7189   */\n      dup3\n        /* \"#utility.yul\":7178:7310   */\n      tag_327\n      jumpi\n        /* \"#utility.yul\":7232:7242   */\n      0x4e487b71\n        /* \"#utility.yul\":7227:7230   */\n      0xe0\n        /* \"#utility.yul\":7223:7243   */\n      shl\n        /* \"#utility.yul\":7220:7221   */\n      0x00\n        /* \"#utility.yul\":7213:7244   */\n      mstore\n        /* \"#utility.yul\":7267:7271   */\n      0x12\n        /* \"#utility.yul\":7264:7265   */\n      0x04\n        /* \"#utility.yul\":7257:7272   */\n      mstore\n        /* \"#utility.yul\":7295:7299   */\n      0x24\n        /* \"#utility.yul\":7292:7293   */\n      0x00\n        /* \"#utility.yul\":7285:7300   */\n      revert\n        /* \"#utility.yul\":7178:7310   */\n    tag_327:\n      pop\n        /* \"#utility.yul\":7324:7333   */\n      div\n      swap1\n        /* \"#utility.yul\":7122:7339   */\n      jump\t// out\n        /* \"#utility.yul\":7344:7472   */\n    tag_223:\n        /* \"#utility.yul\":7411:7420   */\n      dup2\n      dup2\n      sub\n        /* \"#utility.yul\":7432:7443   */\n      dup2\n      dup2\n      gt\n        /* \"#utility.yul\":7429:7466   */\n      iszero\n      tag_112\n      jumpi\n        /* \"#utility.yul\":7446:7464   */\n      tag_112\n      tag_279\n      jump\t// in\n\n    auxdata: 0xa26469706673582212202128cdb1b0c4c5c77f051c129a10690cc0b6106fe20610c1915332c73364a06c64736f6c63430008110033\n}\n",
				"bytecode": {
					"linkReferences": {},
					"object": "60806040523480156200001157600080fd5b50604051806040016040528060088152602001672232bc2a37b5b2b760c11b815250604051806040016040528060038152602001620888ab60eb1b8152508160039081620000609190620002ee565b5060046200006f8282620002ee565b50506005805460ff19169055506200008733620000aa565b6200009f336ba18f07d736b90be55000000062000104565b6003600655620003e2565b600580546001600160a01b03838116610100818102610100600160a81b031985161790945560405193909204169182907f8be0079c531659141344cd1fd0a4f28419497f9722a3daafe3b4186f6b6457e090600090a35050565b6001600160a01b038216620001605760405162461bcd60e51b815260206004820152601f60248201527f45524332303a206d696e7420746f20746865207a65726f20616464726573730060448201526064015b60405180910390fd5b6200016e60008383620001d9565b8060026000828254620001829190620003ba565b90915550506001600160a01b038216600081815260208181526040808320805486019055518481527fddf252ad1be2c89b69c2b068fc378daa952ba7f163c4a11628f55a4df523b3ef910160405180910390a35050565b620001e362000200565b620001fb838383620001fb60201b620005c41760201c565b505050565b60055460ff1615620002485760405162461bcd60e51b815260206004820152601060248201526f14185d5cd8589b194e881c185d5cd95960821b604482015260640162000157565b565b634e487b7160e01b600052604160045260246000fd5b600181811c908216806200027557607f821691505b6020821081036200029657634e487b7160e01b600052602260045260246000fd5b50919050565b601f821115620001fb57600081815260208120601f850160051c81016020861015620002c55750805b601f850160051c820191505b81811015620002e657828155600101620002d1565b505050505050565b81516001600160401b038111156200030a576200030a6200024a565b62000322816200031b845462000260565b846200029c565b602080601f8311600181146200035a5760008415620003415750858301515b600019600386901b1c1916600185901b178555620002e6565b600085815260208120601f198616915b828110156200038b578886015182559484019460019091019084016200036a565b5085821015620003aa5787850151600019600388901b60f8161c191681555b5050505050600190811b01905550565b80820180821115620003dc57634e487b7160e01b600052601160045260246000fd5b92915050565b610ef580620003f26000396000f3fe608060405234801561001057600080fd5b50600436106101375760003560e01c806370a08231116100b857806395d89b411161007c57806395d89b4114610274578063a457c2d71461027c578063a9059cbb1461028f578063bed99850146102a2578063dd62ed3e146102ab578063f2fde38b146102be57600080fd5b806370a08231146101ff578063715018a61461022857806379cc6790146102305780638456cb59146102435780638da5cb5b1461024b57600080fd5b8063313ce567116100ff578063313ce567146101b757806339509351146101c65780633f4ba83a146101d957806342966c68146101e15780635c975abb146101f457600080fd5b806306fdde031461013c578063095ea7b31461015a57806318160ddd1461017d578063189d165e1461018f57806323b872dd146101a4575b600080fd5b6101446102d1565b6040516101519190610c4a565b60405180910390f35b61016d610168366004610cb4565b610363565b6040519015158152602001610151565b6002545b604051908152602001610151565b6101a261019d366004610cde565b61037d565b005b61016d6101b2366004610cf7565b6103eb565b60405160128152602001610151565b61016d6101d4366004610cb4565b61040f565b6101a2610431565b6101a26101ef366004610cde565b610443565b60055460ff1661016d565b61018161020d366004610d33565b6001600160a01b031660009081526020819052604090205490565b6101a2610450565b6101a261023e366004610cb4565b610462565b6101a261047b565b60055461010090046001600160a01b03166040516001600160a01b039091168152602001610151565b61014461048b565b61016d61028a366004610cb4565b61049a565b61016d61029d366004610cb4565b610515565b61018160065481565b6101816102b9366004610d55565b610523565b6101a26102cc366004610d33565b61054e565b6060600380546102e090610d88565b80601f016020809104026020016040519081016040528092919081815260200182805461030c90610d88565b80156103595780601f1061032e57610100808354040283529160200191610359565b820191906000526020600020905b81548152906001019060200180831161033c57829003601f168201915b5050505050905090565b6000336103718185856105c9565b60019150505b92915050565b6103856106ed565b60648111156103e65760405162461bcd60e51b815260206004820152602260248201527f4275726e20726174652063616e6e6f74206265206d6f7265207468616e203130604482015261302560f01b60648201526084015b60405180910390fd5b600655565b6000336103f985828561074d565b6104048585856107c7565b506001949350505050565b6000336103718185856104228383610523565b61042c9190610dd8565b6105c9565b6104396106ed565b61044161085b565b565b61044d33826108ad565b50565b6104586106ed565b61044160006109eb565b61046d82338361074d565b61047782826108ad565b5050565b6104836106ed565b610441610a45565b6060600480546102e090610d88565b600033816104a88286610523565b9050838110156105085760405162461bcd60e51b815260206004820152602560248201527f45524332303a2064656372656173656420616c6c6f77616e63652062656c6f77604482015264207a65726f60d81b60648201526084016103dd565b61040482868684036105c9565b6000336103718185856107c7565b6001600160a01b03918216600090815260016020908152604080832093909416825291909152205490565b6105566106ed565b6001600160a01b0381166105bb5760405162461bcd60e51b815260206004820152602660248201527f4f776e61626c653a206e6577206f776e657220697320746865207a65726f206160448201526564647265737360d01b60648201526084016103dd565b61044d816109eb565b505050565b6001600160a01b03831661062b5760405162461bcd60e51b8152602060048201526024808201527f45524332303a20617070726f76652066726f6d20746865207a65726f206164646044820152637265737360e01b60648201526084016103dd565b6001600160a01b03821661068c5760405162461bcd60e51b815260206004820152602260248201527f45524332303a20617070726f766520746f20746865207a65726f206164647265604482015261737360f01b60648201526084016103dd565b6001600160a01b0383811660008181526001602090815260408083209487168084529482529182902085905590518481527f8c5be1e5ebec7d5bd14f71427d1e84f3dd0314c0f7b2291e5b200ac8c7c3b925910160405180910390a3505050565b6005546001600160a01b036101009091041633146104415760405162461bcd60e51b815260206004820181905260248201527f4f776e61626c653a2063616c6c6572206973206e6f7420746865206f776e657260448201526064016103dd565b60006107598484610523565b905060001981146107c157818110156107b45760405162461bcd60e51b815260206004820152601d60248201527f45524332303a20696e73756666696369656e7420616c6c6f77616e636500000060448201526064016103dd565b6107c184848484036105c9565b50505050565b6001600160a01b0383166107ed5760405162461bcd60e51b81526004016103dd90610deb565b6001600160a01b0382166108135760405162461bcd60e51b81526004016103dd90610e30565b60006064600654836108259190610e73565b61082f9190610e8a565b9050600061083d8284610eac565b905061084985836108ad565b610854858583610a82565b5050505050565b610863610bb7565b6005805460ff191690557f5db9ee0a495bf2e6ff9c91a7834c1ba4fdd244a5e8aa4e537bd38aeae4b073aa335b6040516001600160a01b03909116815260200160405180910390a1565b6001600160a01b03821661090d5760405162461bcd60e51b815260206004820152602160248201527f45524332303a206275726e2066726f6d20746865207a65726f206164647265736044820152607360f81b60648201526084016103dd565b61091982600083610c00565b6001600160a01b0382166000908152602081905260409020548181101561098d5760405162461bcd60e51b815260206004820152602260248201527f45524332303a206275726e20616d6f756e7420657863656564732062616c616e604482015261636560f01b60648201526084016103dd565b6001600160a01b0383166000818152602081815260408083208686039055600280548790039055518581529192917fddf252ad1be2c89b69c2b068fc378daa952ba7f163c4a11628f55a4df523b3ef910160405180910390a3505050565b600580546001600160a01b03838116610100818102610100600160a81b031985161790945560405193909204169182907f8be0079c531659141344cd1fd0a4f28419497f9722a3daafe3b4186f6b6457e090600090a35050565b610a4d610c04565b6005805460ff191660011790557f62e78cea01bee320cd4e420270b5ea74000d11b0c9f74754ebdbfc544b05a2586108903390565b6001600160a01b038316610aa85760405162461bcd60e51b81526004016103dd90610deb565b6001600160a01b038216610ace5760405162461bcd60e51b81526004016103dd90610e30565b610ad9838383610c00565b6001600160a01b03831660009081526020819052604090205481811015610b515760405162461bcd60e51b815260206004820152602660248201527f45524332303a207472616e7366657220616d6f756e7420657863656564732062604482015265616c616e636560d01b60648201526084016103dd565b6001600160a01b03848116600081815260208181526040808320878703905593871680835291849020805487019055925185815290927fddf252ad1be2c89b69c2b068fc378daa952ba7f163c4a11628f55a4df523b3ef910160405180910390a36107c1565b60055460ff166104415760405162461bcd60e51b815260206004820152601460248201527314185d5cd8589b194e881b9bdd081c185d5cd95960621b60448201526064016103dd565b6105c45b60055460ff16156104415760405162461bcd60e51b815260206004820152601060248201526f14185d5cd8589b194e881c185d5cd95960821b60448201526064016103dd565b600060208083528351808285015260005b81811015610c7757858101830151858201604001528201610c5b565b506000604082860101526040601f19601f8301168501019250505092915050565b80356001600160a01b0381168114610caf57600080fd5b919050565b60008060408385031215610cc757600080fd5b610cd083610c98565b946020939093013593505050565b600060208284031215610cf057600080fd5b5035919050565b600080600060608486031215610d0c57600080fd5b610d1584610c98565b9250610d2360208501610c98565b9150604084013590509250925092565b600060208284031215610d4557600080fd5b610d4e82610c98565b9392505050565b60008060408385031215610d6857600080fd5b610d7183610c98565b9150610d7f60208401610c98565b90509250929050565b600181811c90821680610d9c57607f821691505b602082108103610dbc57634e487b7160e01b600052602260045260246000fd5b50919050565b634e487b7160e01b600052601160045260246000fd5b8082018082111561037757610377610dc2565b60208082526025908201527f45524332303a207472616e736665722066726f6d20746865207a65726f206164604082015264647265737360d81b606082015260800190565b60208082526023908201527f45524332303a207472616e7366657220746f20746865207a65726f206164647260408201526265737360e81b606082015260800190565b808202811582820484141761037757610377610dc2565b600082610ea757634e487b7160e01b600052601260045260246000fd5b500490565b8181038181111561037757610377610dc256fea26469706673582212202128cdb1b0c4c5c77f051c129a10690cc0b6106fe20610c1915332c73364a06c64736f6c63430008110033",
					"opcodes": "PUSH1 0x80 PUSH1 0x40 MSTORE CALLVALUE DUP1 ISZERO PUSH3 0x11 JUMPI PUSH1 0x0 DUP1 REVERT JUMPDEST POP PUSH1 0x40 MLOAD DUP1 PUSH1 0x40 ADD PUSH1 0x40 MSTORE DUP1 PUSH1 0x8 DUP2 MSTORE PUSH1 0x20 ADD PUSH8 0x2232BC2A37B5B2B7 PUSH1 0xC1 SHL DUP2 MSTORE POP PUSH1 0x40 MLOAD DUP1 PUSH1 0x40 ADD PUSH1 0x40 MSTORE DUP1 PUSH1 0x3 DUP2 MSTORE PUSH1 0x20 ADD PUSH3 0x888AB PUSH1 0xEB SHL DUP2 MSTORE POP DUP2 PUSH1 0x3 SWAP1 DUP2 PUSH3 0x60 SWAP2 SWAP1 PUSH3 0x2EE JUMP JUMPDEST POP PUSH1 0x4 PUSH3 0x6F DUP3 DUP3 PUSH3 0x2EE JUMP JUMPDEST POP POP PUSH1 0x5 DUP1 SLOAD PUSH1 0xFF NOT AND SWAP1 SSTORE POP PUSH3 0x87 CALLER PUSH3 0xAA JUMP JUMPDEST PUSH3 0x9F CALLER PUSH12 0xA18F07D736B90BE550000000 PUSH3 0x104 JUMP JUMPDEST PUSH1 0x3 PUSH1 0x6 SSTORE PUSH3 0x3E2 JUMP JUMPDEST PUSH1 0x5 DUP1 SLOAD PUSH1 0x1 PUSH1 0x1 PUSH1 0xA0 SHL SUB DUP4 DUP2 AND PUSH2 0x100 DUP2 DUP2 MUL PUSH2 0x100 PUSH1 0x1 PUSH1 0xA8 SHL SUB NOT DUP6 AND OR SWAP1 SWAP5 SSTORE PUSH1 0x40 MLOAD SWAP4 SWAP1 SWAP3 DIV AND SWAP2 DUP3 SWAP1 PUSH32 0x8BE0079C531659141344CD1FD0A4F28419497F9722A3DAAFE3B4186F6B6457E0 SWAP1 PUSH1 0x0 SWAP1 LOG3 POP POP JUMP JUMPDEST PUSH1 0x1 PUSH1 0x1 PUSH1 0xA0 SHL SUB DUP3 AND PUSH3 0x160 JUMPI PUSH1 0x40 MLOAD PUSH3 0x461BCD PUSH1 0xE5 SHL DUP2 MSTORE PUSH1 0x20 PUSH1 0x4 DUP3 ADD MSTORE PUSH1 0x1F PUSH1 0x24 DUP3 ADD MSTORE PUSH32 0x45524332303A206D696E7420746F20746865207A65726F206164647265737300 PUSH1 0x44 DUP3 ADD MSTORE PUSH1 0x64 ADD JUMPDEST PUSH1 0x40 MLOAD DUP1 SWAP2 SUB SWAP1 REVERT JUMPDEST PUSH3 0x16E PUSH1 0x0 DUP4 DUP4 PUSH3 0x1D9 JUMP JUMPDEST DUP1 PUSH1 0x2 PUSH1 0x0 DUP3 DUP3 SLOAD PUSH3 0x182 SWAP2 SWAP1 PUSH3 0x3BA JUMP JUMPDEST SWAP1 SWAP2 SSTORE POP POP PUSH1 0x1 PUSH1 0x1 PUSH1 0xA0 SHL SUB DUP3 AND PUSH1 0x0 DUP2 DUP2 MSTORE PUSH1 0x20 DUP2 DUP2 MSTORE PUSH1 0x40 DUP1 DUP4 KECCAK256 DUP1 SLOAD DUP7 ADD SWAP1 SSTORE MLOAD DUP5 DUP2 MSTORE PUSH32 0xDDF252AD1BE2C89B69C2B068FC378DAA952BA7F163C4A11628F55A4DF523B3EF SWAP2 ADD PUSH1 0x40 MLOAD DUP1 SWAP2 SUB SWAP1 LOG3 POP POP JUMP JUMPDEST PUSH3 0x1E3 PUSH3 0x200 JUMP JUMPDEST PUSH3 0x1FB DUP4 DUP4 DUP4 PUSH3 0x1FB PUSH1 0x20 SHL PUSH3 0x5C4 OR PUSH1 0x20 SHR JUMP JUMPDEST POP POP POP JUMP JUMPDEST PUSH1 0x5 SLOAD PUSH1 0xFF AND ISZERO PUSH3 0x248 JUMPI PUSH1 0x40 MLOAD PUSH3 0x461BCD PUSH1 0xE5 SHL DUP2 MSTORE PUSH1 0x20 PUSH1 0x4 DUP3 ADD MSTORE PUSH1 0x10 PUSH1 0x24 DUP3 ADD MSTORE PUSH16 0x14185D5CD8589B194E881C185D5CD959 PUSH1 0x82 SHL PUSH1 0x44 DUP3 ADD MSTORE PUSH1 0x64 ADD PUSH3 0x157 JUMP JUMPDEST JUMP JUMPDEST PUSH4 0x4E487B71 PUSH1 0xE0 SHL PUSH1 0x0 MSTORE PUSH1 0x41 PUSH1 0x4 MSTORE PUSH1 0x24 PUSH1 0x0 REVERT JUMPDEST PUSH1 0x1 DUP2 DUP2 SHR SWAP1 DUP3 AND DUP1 PUSH3 0x275 JUMPI PUSH1 0x7F DUP3 AND SWAP2 POP JUMPDEST PUSH1 0x20 DUP3 LT DUP2 SUB PUSH3 0x296 JUMPI PUSH4 0x4E487B71 PUSH1 0xE0 SHL PUSH1 0x0 MSTORE PUSH1 0x22 PUSH1 0x4 MSTORE PUSH1 0x24 PUSH1 0x0 REVERT JUMPDEST POP SWAP2 SWAP1 POP JUMP JUMPDEST PUSH1 0x1F DUP3 GT ISZERO PUSH3 0x1FB JUMPI PUSH1 0x0 DUP2 DUP2 MSTORE PUSH1 0x20 DUP2 KECCAK256 PUSH1 0x1F DUP6 ADD PUSH1 0x5 SHR DUP2 ADD PUSH1 0x20 DUP7 LT ISZERO PUSH3 0x2C5 JUMPI POP DUP1 JUMPDEST PUSH1 0x1F DUP6 ADD PUSH1 0x5 SHR DUP3 ADD SWAP2 POP JUMPDEST DUP2 DUP2 LT ISZERO PUSH3 0x2E6 JUMPI DUP3 DUP2 SSTORE PUSH1 0x1 ADD PUSH3 0x2D1 JUMP JUMPDEST POP POP POP POP POP POP JUMP JUMPDEST DUP2 MLOAD PUSH1 0x1 PUSH1 0x1 PUSH1 0x40 SHL SUB DUP2 GT ISZERO PUSH3 0x30A JUMPI PUSH3 0x30A PUSH3 0x24A JUMP JUMPDEST PUSH3 0x322 DUP2 PUSH3 0x31B DUP5 SLOAD PUSH3 0x260 JUMP JUMPDEST DUP5 PUSH3 0x29C JUMP JUMPDEST PUSH1 0x20 DUP1 PUSH1 0x1F DUP4 GT PUSH1 0x1 DUP2 EQ PUSH3 0x35A JUMPI PUSH1 0x0 DUP5 ISZERO PUSH3 0x341 JUMPI POP DUP6 DUP4 ADD MLOAD JUMPDEST PUSH1 0x0 NOT PUSH1 0x3 DUP7 SWAP1 SHL SHR NOT AND PUSH1 0x1 DUP6 SWAP1 SHL OR DUP6 SSTORE PUSH3 0x2E6 JUMP JUMPDEST PUSH1 0x0 DUP6 DUP2 MSTORE PUSH1 0x20 DUP2 KECCAK256 PUSH1 0x1F NOT DUP7 AND SWAP2 JUMPDEST DUP3 DUP2 LT ISZERO PUSH3 0x38B JUMPI DUP9 DUP7 ADD MLOAD DUP3 SSTORE SWAP5 DUP5 ADD SWAP5 PUSH1 0x1 SWAP1 SWAP2 ADD SWAP1 DUP5 ADD PUSH3 0x36A JUMP JUMPDEST POP DUP6 DUP3 LT ISZERO PUSH3 0x3AA JUMPI DUP8 DUP6 ADD MLOAD PUSH1 0x0 NOT PUSH1 0x3 DUP9 SWAP1 SHL PUSH1 0xF8 AND SHR NOT AND DUP2 SSTORE JUMPDEST POP POP POP POP POP PUSH1 0x1 SWAP1 DUP2 SHL ADD SWAP1 SSTORE POP JUMP JUMPDEST DUP1 DUP3 ADD DUP1 DUP3 GT ISZERO PUSH3 0x3DC JUMPI PUSH4 0x4E487B71 PUSH1 0xE0 SHL PUSH1 0x0 MSTORE PUSH1 0x11 PUSH1 0x4 MSTORE PUSH1 0x24 PUSH1 0x0 REVERT JUMPDEST SWAP3 SWAP2 POP POP JUMP JUMPDEST PUSH2 0xEF5 DUP1 PUSH3 0x3F2 PUSH1 0x0 CODECOPY PUSH1 0x0 RETURN INVALID PUSH1 0x80 PUSH1 0x40 MSTORE CALLVALUE DUP1 ISZERO PUSH2 0x10 JUMPI PUSH1 0x0 DUP1 REVERT JUMPDEST POP PUSH1 0x4 CALLDATASIZE LT PUSH2 0x137 JUMPI PUSH1 0x0 CALLDATALOAD PUSH1 0xE0 SHR DUP1 PUSH4 0x70A08231 GT PUSH2 0xB8 JUMPI DUP1 PUSH4 0x95D89B41 GT PUSH2 0x7C JUMPI DUP1 PUSH4 0x95D89B41 EQ PUSH2 0x274 JUMPI DUP1 PUSH4 0xA457C2D7 EQ PUSH2 0x27C JUMPI DUP1 PUSH4 0xA9059CBB EQ PUSH2 0x28F JUMPI DUP1 PUSH4 0xBED99850 EQ PUSH2 0x2A2 JUMPI DUP1 PUSH4 0xDD62ED3E EQ PUSH2 0x2AB JUMPI DUP1 PUSH4 0xF2FDE38B EQ PUSH2 0x2BE JUMPI PUSH1 0x0 DUP1 REVERT JUMPDEST DUP1 PUSH4 0x70A08231 EQ PUSH2 0x1FF JUMPI DUP1 PUSH4 0x715018A6 EQ PUSH2 0x228 JUMPI DUP1 PUSH4 0x79CC6790 EQ PUSH2 0x230 JUMPI DUP1 PUSH4 0x8456CB59 EQ PUSH2 0x243 JUMPI DUP1 PUSH4 0x8DA5CB5B EQ PUSH2 0x24B JUMPI PUSH1 0x0 DUP1 REVERT JUMPDEST DUP1 PUSH4 0x313CE567 GT PUSH2 0xFF JUMPI DUP1 PUSH4 0x313CE567 EQ PUSH2 0x1B7 JUMPI DUP1 PUSH4 0x39509351 EQ PUSH2 0x1C6 JUMPI DUP1 PUSH4 0x3F4BA83A EQ PUSH2 0x1D9 JUMPI DUP1 PUSH4 0x42966C68 EQ PUSH2 0x1E1 JUMPI DUP1 PUSH4 0x5C975ABB EQ PUSH2 0x1F4 JUMPI PUSH1 0x0 DUP1 REVERT JUMPDEST DUP1 PUSH4 0x6FDDE03 EQ PUSH2 0x13C JUMPI DUP1 PUSH4 0x95EA7B3 EQ PUSH2 0x15A JUMPI DUP1 PUSH4 0x18160DDD EQ PUSH2 0x17D JUMPI DUP1 PUSH4 0x189D165E EQ PUSH2 0x18F JUMPI DUP1 PUSH4 0x23B872DD EQ PUSH2 0x1A4 JUMPI JUMPDEST PUSH1 0x0 DUP1 REVERT JUMPDEST PUSH2 0x144 PUSH2 0x2D1 JUMP JUMPDEST PUSH1 0x40 MLOAD PUSH2 0x151 SWAP2 SWAP1 PUSH2 0xC4A JUMP JUMPDEST PUSH1 0x40 MLOAD DUP1 SWAP2 SUB SWAP1 RETURN JUMPDEST PUSH2 0x16D PUSH2 0x168 CALLDATASIZE PUSH1 0x4 PUSH2 0xCB4 JUMP JUMPDEST PUSH2 0x363 JUMP JUMPDEST PUSH1 0x40 MLOAD SWAP1 ISZERO ISZERO DUP2 MSTORE PUSH1 0x20 ADD PUSH2 0x151 JUMP JUMPDEST PUSH1 0x2 SLOAD JUMPDEST PUSH1 0x40 MLOAD SWAP1 DUP2 MSTORE PUSH1 0x20 ADD PUSH2 0x151 JUMP JUMPDEST PUSH2 0x1A2 PUSH2 0x19D CALLDATASIZE PUSH1 0x4 PUSH2 0xCDE JUMP JUMPDEST PUSH2 0x37D JUMP JUMPDEST STOP JUMPDEST PUSH2 0x16D PUSH2 0x1B2 CALLDATASIZE PUSH1 0x4 PUSH2 0xCF7 JUMP JUMPDEST PUSH2 0x3EB JUMP JUMPDEST PUSH1 0x40 MLOAD PUSH1 0x12 DUP2 MSTORE PUSH1 0x20 ADD PUSH2 0x151 JUMP JUMPDEST PUSH2 0x16D PUSH2 0x1D4 CALLDATASIZE PUSH1 0x4 PUSH2 0xCB4 JUMP JUMPDEST PUSH2 0x40F JUMP JUMPDEST PUSH2 0x1A2 PUSH2 0x431 JUMP JUMPDEST PUSH2 0x1A2 PUSH2 0x1EF CALLDATASIZE PUSH1 0x4 PUSH2 0xCDE JUMP JUMPDEST PUSH2 0x443 JUMP JUMPDEST PUSH1 0x5 SLOAD PUSH1 0xFF AND PUSH2 0x16D JUMP JUMPDEST PUSH2 0x181 PUSH2 0x20D CALLDATASIZE PUSH1 0x4 PUSH2 0xD33 JUMP JUMPDEST PUSH1 0x1 PUSH1 0x1 PUSH1 0xA0 SHL SUB AND PUSH1 0x0 SWAP1 DUP2 MSTORE PUSH1 0x20 DUP2 SWAP1 MSTORE PUSH1 0x40 SWAP1 KECCAK256 SLOAD SWAP1 JUMP JUMPDEST PUSH2 0x1A2 PUSH2 0x450 JUMP JUMPDEST PUSH2 0x1A2 PUSH2 0x23E CALLDATASIZE PUSH1 0x4 PUSH2 0xCB4 JUMP JUMPDEST PUSH2 0x462 JUMP JUMPDEST PUSH2 0x1A2 PUSH2 0x47B JUMP JUMPDEST PUSH1 0x5 SLOAD PUSH2 0x100 SWAP1 DIV PUSH1 0x1 PUSH1 0x1 PUSH1 0xA0 SHL SUB AND PUSH1 0x40 MLOAD PUSH1 0x1 PUSH1 0x1 PUSH1 0xA0 SHL SUB SWAP1 SWAP2 AND DUP2 MSTORE PUSH1 0x20 ADD PUSH2 0x151 JUMP JUMPDEST PUSH2 0x144 PUSH2 0x48B JUMP JUMPDEST PUSH2 0x16D PUSH2 0x28A CALLDATASIZE PUSH1 0x4 PUSH2 0xCB4 JUMP JUMPDEST PUSH2 0x49A JUMP JUMPDEST PUSH2 0x16D PUSH2 0x29D CALLDATASIZE PUSH1 0x4 PUSH2 0xCB4 JUMP JUMPDEST PUSH2 0x515 JUMP JUMPDEST PUSH2 0x181 PUSH1 0x6 SLOAD DUP2 JUMP JUMPDEST PUSH2 0x181 PUSH2 0x2B9 CALLDATASIZE PUSH1 0x4 PUSH2 0xD55 JUMP JUMPDEST PUSH2 0x523 JUMP JUMPDEST PUSH2 0x1A2 PUSH2 0x2CC CALLDATASIZE PUSH1 0x4 PUSH2 0xD33 JUMP JUMPDEST PUSH2 0x54E JUMP JUMPDEST PUSH1 0x60 PUSH1 0x3 DUP1 SLOAD PUSH2 0x2E0 SWAP1 PUSH2 0xD88 JUMP JUMPDEST DUP1 PUSH1 0x1F ADD PUSH1 0x20 DUP1 SWAP2 DIV MUL PUSH1 0x20 ADD PUSH1 0x40 MLOAD SWAP1 DUP2 ADD PUSH1 0x40 MSTORE DUP1 SWAP3 SWAP2 SWAP1 DUP2 DUP2 MSTORE PUSH1 0x20 ADD DUP3 DUP1 SLOAD PUSH2 0x30C SWAP1 PUSH2 0xD88 JUMP JUMPDEST DUP1 ISZERO PUSH2 0x359 JUMPI DUP1 PUSH1 0x1F LT PUSH2 0x32E JUMPI PUSH2 0x100 DUP1 DUP4 SLOAD DIV MUL DUP4 MSTORE SWAP2 PUSH1 0x20 ADD SWAP2 PUSH2 0x359 JUMP JUMPDEST DUP3 ADD SWAP2 SWAP1 PUSH1 0x0 MSTORE PUSH1 0x20 PUSH1 0x0 KECCAK256 SWAP1 JUMPDEST DUP2 SLOAD DUP2 MSTORE SWAP1 PUSH1 0x1 ADD SWAP1 PUSH1 0x20 ADD DUP1 DUP4 GT PUSH2 0x33C JUMPI DUP3 SWAP1 SUB PUSH1 0x1F AND DUP3 ADD SWAP2 JUMPDEST POP POP POP POP POP SWAP1 POP SWAP1 JUMP JUMPDEST PUSH1 0x0 CALLER PUSH2 0x371 DUP2 DUP6 DUP6 PUSH2 0x5C9 JUMP JUMPDEST PUSH1 0x1 SWAP2 POP POP JUMPDEST SWAP3 SWAP2 POP POP JUMP JUMPDEST PUSH2 0x385 PUSH2 0x6ED JUMP JUMPDEST PUSH1 0x64 DUP2 GT ISZERO PUSH2 0x3E6 JUMPI PUSH1 0x40 MLOAD PUSH3 0x461BCD PUSH1 0xE5 SHL DUP2 MSTORE PUSH1 0x20 PUSH1 0x4 DUP3 ADD MSTORE PUSH1 0x22 PUSH1 0x24 DUP3 ADD MSTORE PUSH32 0x4275726E20726174652063616E6E6F74206265206D6F7265207468616E203130 PUSH1 0x44 DUP3 ADD MSTORE PUSH2 0x3025 PUSH1 0xF0 SHL PUSH1 0x64 DUP3 ADD MSTORE PUSH1 0x84 ADD JUMPDEST PUSH1 0x40 MLOAD DUP1 SWAP2 SUB SWAP1 REVERT JUMPDEST PUSH1 0x6 SSTORE JUMP JUMPDEST PUSH1 0x0 CALLER PUSH2 0x3F9 DUP6 DUP3 DUP6 PUSH2 0x74D JUMP JUMPDEST PUSH2 0x404 DUP6 DUP6 DUP6 PUSH2 0x7C7 JUMP JUMPDEST POP PUSH1 0x1 SWAP5 SWAP4 POP POP POP POP JUMP JUMPDEST PUSH1 0x0 CALLER PUSH2 0x371 DUP2 DUP6 DUP6 PUSH2 0x422 DUP4 DUP4 PUSH2 0x523 JUMP JUMPDEST PUSH2 0x42C SWAP2 SWAP1 PUSH2 0xDD8 JUMP JUMPDEST PUSH2 0x5C9 JUMP JUMPDEST PUSH2 0x439 PUSH2 0x6ED JUMP JUMPDEST PUSH2 0x441 PUSH2 0x85B JUMP JUMPDEST JUMP JUMPDEST PUSH2 0x44D CALLER DUP3 PUSH2 0x8AD JUMP JUMPDEST POP JUMP JUMPDEST PUSH2 0x458 PUSH2 0x6ED JUMP JUMPDEST PUSH2 0x441 PUSH1 0x0 PUSH2 0x9EB JUMP JUMPDEST PUSH2 0x46D DUP3 CALLER DUP4 PUSH2 0x74D JUMP JUMPDEST PUSH2 0x477 DUP3 DUP3 PUSH2 0x8AD JUMP JUMPDEST POP POP JUMP JUMPDEST PUSH2 0x483 PUSH2 0x6ED JUMP JUMPDEST PUSH2 0x441 PUSH2 0xA45 JUMP JUMPDEST PUSH1 0x60 PUSH1 0x4 DUP1 SLOAD PUSH2 0x2E0 SWAP1 PUSH2 0xD88 JUMP JUMPDEST PUSH1 0x0 CALLER DUP2 PUSH2 0x4A8 DUP3 DUP7 PUSH2 0x523 JUMP JUMPDEST SWAP1 POP DUP4 DUP2 LT ISZERO PUSH2 0x508 JUMPI PUSH1 0x40 MLOAD PUSH3 0x461BCD PUSH1 0xE5 SHL DUP2 MSTORE PUSH1 0x20 PUSH1 0x4 DUP3 ADD MSTORE PUSH1 0x25 PUSH1 0x24 DUP3 ADD MSTORE PUSH32 0x45524332303A2064656372656173656420616C6C6F77616E63652062656C6F77 PUSH1 0x44 DUP3 ADD MSTORE PUSH5 0x207A65726F PUSH1 0xD8 SHL PUSH1 0x64 DUP3 ADD MSTORE PUSH1 0x84 ADD PUSH2 0x3DD JUMP JUMPDEST PUSH2 0x404 DUP3 DUP7 DUP7 DUP5 SUB PUSH2 0x5C9 JUMP JUMPDEST PUSH1 0x0 CALLER PUSH2 0x371 DUP2 DUP6 DUP6 PUSH2 0x7C7 JUMP JUMPDEST PUSH1 0x1 PUSH1 0x1 PUSH1 0xA0 SHL SUB SWAP2 DUP3 AND PUSH1 0x0 SWAP1 DUP2 MSTORE PUSH1 0x1 PUSH1 0x20 SWAP1 DUP2 MSTORE PUSH1 0x40 DUP1 DUP4 KECCAK256 SWAP4 SWAP1 SWAP5 AND DUP3 MSTORE SWAP2 SWAP1 SWAP2 MSTORE KECCAK256 SLOAD SWAP1 JUMP JUMPDEST PUSH2 0x556 PUSH2 0x6ED JUMP JUMPDEST PUSH1 0x1 PUSH1 0x1 PUSH1 0xA0 SHL SUB DUP2 AND PUSH2 0x5BB JUMPI PUSH1 0x40 MLOAD PUSH3 0x461BCD PUSH1 0xE5 SHL DUP2 MSTORE PUSH1 0x20 PUSH1 0x4 DUP3 ADD MSTORE PUSH1 0x26 PUSH1 0x24 DUP3 ADD MSTORE PUSH32 0x4F776E61626C653A206E6577206F776E657220697320746865207A65726F2061 PUSH1 0x44 DUP3 ADD MSTORE PUSH6 0x646472657373 PUSH1 0xD0 SHL PUSH1 0x64 DUP3 ADD MSTORE PUSH1 0x84 ADD PUSH2 0x3DD JUMP JUMPDEST PUSH2 0x44D DUP2 PUSH2 0x9EB JUMP JUMPDEST POP POP POP JUMP JUMPDEST PUSH1 0x1 PUSH1 0x1 PUSH1 0xA0 SHL SUB DUP4 AND PUSH2 0x62B JUMPI PUSH1 0x40 MLOAD PUSH3 0x461BCD PUSH1 0xE5 SHL DUP2 MSTORE PUSH1 0x20 PUSH1 0x4 DUP3 ADD MSTORE PUSH1 0x24 DUP1 DUP3 ADD MSTORE PUSH32 0x45524332303A20617070726F76652066726F6D20746865207A65726F20616464 PUSH1 0x44 DUP3 ADD MSTORE PUSH4 0x72657373 PUSH1 0xE0 SHL PUSH1 0x64 DUP3 ADD MSTORE PUSH1 0x84 ADD PUSH2 0x3DD JUMP JUMPDEST PUSH1 0x1 PUSH1 0x1 PUSH1 0xA0 SHL SUB DUP3 AND PUSH2 0x68C JUMPI PUSH1 0x40 MLOAD PUSH3 0x461BCD PUSH1 0xE5 SHL DUP2 MSTORE PUSH1 0x20 PUSH1 0x4 DUP3 ADD MSTORE PUSH1 0x22 PUSH1 0x24 DUP3 ADD MSTORE PUSH32 0x45524332303A20617070726F766520746F20746865207A65726F206164647265 PUSH1 0x44 DUP3 ADD MSTORE PUSH2 0x7373 PUSH1 0xF0 SHL PUSH1 0x64 DUP3 ADD MSTORE PUSH1 0x84 ADD PUSH2 0x3DD JUMP JUMPDEST PUSH1 0x1 PUSH1 0x1 PUSH1 0xA0 SHL SUB DUP4 DUP2 AND PUSH1 0x0 DUP2 DUP2 MSTORE PUSH1 0x1 PUSH1 0x20 SWAP1 DUP2 MSTORE PUSH1 0x40 DUP1 DUP4 KECCAK256 SWAP5 DUP8 AND DUP1 DUP5 MSTORE SWAP5 DUP3 MSTORE SWAP2 DUP3 SWAP1 KECCAK256 DUP6 SWAP1 SSTORE SWAP1 MLOAD DUP5 DUP2 MSTORE PUSH32 0x8C5BE1E5EBEC7D5BD14F71427D1E84F3DD0314C0F7B2291E5B200AC8C7C3B925 SWAP2 ADD PUSH1 0x40 MLOAD DUP1 SWAP2 SUB SWAP1 LOG3 POP POP POP JUMP JUMPDEST PUSH1 0x5 SLOAD PUSH1 0x1 PUSH1 0x1 PUSH1 0xA0 SHL SUB PUSH2 0x100 SWAP1 SWAP2 DIV AND CALLER EQ PUSH2 0x441 JUMPI PUSH1 0x40 MLOAD PUSH3 0x461BCD PUSH1 0xE5 SHL DUP2 MSTORE PUSH1 0x20 PUSH1 0x4 DUP3 ADD DUP2 SWAP1 MSTORE PUSH1 0x24 DUP3 ADD MSTORE PUSH32 0x4F776E61626C653A2063616C6C6572206973206E6F7420746865206F776E6572 PUSH1 0x44 DUP3 ADD MSTORE PUSH1 0x64 ADD PUSH2 0x3DD JUMP JUMPDEST PUSH1 0x0 PUSH2 0x759 DUP5 DUP5 PUSH2 0x523 JUMP JUMPDEST SWAP1 POP PUSH1 0x0 NOT DUP2 EQ PUSH2 0x7C1 JUMPI DUP2 DUP2 LT ISZERO PUSH2 0x7B4 JUMPI PUSH1 0x40 MLOAD PUSH3 0x461BCD PUSH1 0xE5 SHL DUP2 MSTORE PUSH1 0x20 PUSH1 0x4 DUP3 ADD MSTORE PUSH1 0x1D PUSH1 0x24 DUP3 ADD MSTORE PUSH32 0x45524332303A20696E73756666696369656E7420616C6C6F77616E6365000000 PUSH1 0x44 DUP3 ADD MSTORE PUSH1 0x64 ADD PUSH2 0x3DD JUMP JUMPDEST PUSH2 0x7C1 DUP5 DUP5 DUP5 DUP5 SUB PUSH2 0x5C9 JUMP JUMPDEST POP POP POP POP JUMP JUMPDEST PUSH1 0x1 PUSH1 0x1 PUSH1 0xA0 SHL SUB DUP4 AND PUSH2 0x7ED JUMPI PUSH1 0x40 MLOAD PUSH3 0x461BCD PUSH1 0xE5 SHL DUP2 MSTORE PUSH1 0x4 ADD PUSH2 0x3DD SWAP1 PUSH2 0xDEB JUMP JUMPDEST PUSH1 0x1 PUSH1 0x1 PUSH1 0xA0 SHL SUB DUP3 AND PUSH2 0x813 JUMPI PUSH1 0x40 MLOAD PUSH3 0x461BCD PUSH1 0xE5 SHL DUP2 MSTORE PUSH1 0x4 ADD PUSH2 0x3DD SWAP1 PUSH2 0xE30 JUMP JUMPDEST PUSH1 0x0 PUSH1 0x64 PUSH1 0x6 SLOAD DUP4 PUSH2 0x825 SWAP2 SWAP1 PUSH2 0xE73 JUMP JUMPDEST PUSH2 0x82F SWAP2 SWAP1 PUSH2 0xE8A JUMP JUMPDEST SWAP1 POP PUSH1 0x0 PUSH2 0x83D DUP3 DUP5 PUSH2 0xEAC JUMP JUMPDEST SWAP1 POP PUSH2 0x849 DUP6 DUP4 PUSH2 0x8AD JUMP JUMPDEST PUSH2 0x854 DUP6 DUP6 DUP4 PUSH2 0xA82 JUMP JUMPDEST POP POP POP POP POP JUMP JUMPDEST PUSH2 0x863 PUSH2 0xBB7 JUMP JUMPDEST PUSH1 0x5 DUP1 SLOAD PUSH1 0xFF NOT AND SWAP1 SSTORE PUSH32 0x5DB9EE0A495BF2E6FF9C91A7834C1BA4FDD244A5E8AA4E537BD38AEAE4B073AA CALLER JUMPDEST PUSH1 0x40 MLOAD PUSH1 0x1 PUSH1 0x1 PUSH1 0xA0 SHL SUB SWAP1 SWAP2 AND DUP2 MSTORE PUSH1 0x20 ADD PUSH1 0x40 MLOAD DUP1 SWAP2 SUB SWAP1 LOG1 JUMP JUMPDEST PUSH1 0x1 PUSH1 0x1 PUSH1 0xA0 SHL SUB DUP3 AND PUSH2 0x90D JUMPI PUSH1 0x40 MLOAD PUSH3 0x461BCD PUSH1 0xE5 SHL DUP2 MSTORE PUSH1 0x20 PUSH1 0x4 DUP3 ADD MSTORE PUSH1 0x21 PUSH1 0x24 DUP3 ADD MSTORE PUSH32 0x45524332303A206275726E2066726F6D20746865207A65726F20616464726573 PUSH1 0x44 DUP3 ADD MSTORE PUSH1 0x73 PUSH1 0xF8 SHL PUSH1 0x64 DUP3 ADD MSTORE PUSH1 0x84 ADD PUSH2 0x3DD JUMP JUMPDEST PUSH2 0x919 DUP3 PUSH1 0x0 DUP4 PUSH2 0xC00 JUMP JUMPDEST PUSH1 0x1 PUSH1 0x1 PUSH1 0xA0 SHL SUB DUP3 AND PUSH1 0x0 SWAP1 DUP2 MSTORE PUSH1 0x20 DUP2 SWAP1 MSTORE PUSH1 0x40 SWAP1 KECCAK256 SLOAD DUP2 DUP2 LT ISZERO PUSH2 0x98D JUMPI PUSH1 0x40 MLOAD PUSH3 0x461BCD PUSH1 0xE5 SHL DUP2 MSTORE PUSH1 0x20 PUSH1 0x4 DUP3 ADD MSTORE PUSH1 0x22 PUSH1 0x24 DUP3 ADD MSTORE PUSH32 0x45524332303A206275726E20616D6F756E7420657863656564732062616C616E PUSH1 0x44 DUP3 ADD MSTORE PUSH2 0x6365 PUSH1 0xF0 SHL PUSH1 0x64 DUP3 ADD MSTORE PUSH1 0x84 ADD PUSH2 0x3DD JUMP JUMPDEST PUSH1 0x1 PUSH1 0x1 PUSH1 0xA0 SHL SUB DUP4 AND PUSH1 0x0 DUP2 DUP2 MSTORE PUSH1 0x20 DUP2 DUP2 MSTORE PUSH1 0x40 DUP1 DUP4 KECCAK256 DUP7 DUP7 SUB SWAP1 SSTORE PUSH1 0x2 DUP1 SLOAD DUP8 SWAP1 SUB SWAP1 SSTORE MLOAD DUP6 DUP2 MSTORE SWAP2 SWAP3 SWAP2 PUSH32 0xDDF252AD1BE2C89B69C2B068FC378DAA952BA7F163C4A11628F55A4DF523B3EF SWAP2 ADD PUSH1 0x40 MLOAD DUP1 SWAP2 SUB SWAP1 LOG3 POP POP POP JUMP JUMPDEST PUSH1 0x5 DUP1 SLOAD PUSH1 0x1 PUSH1 0x1 PUSH1 0xA0 SHL SUB DUP4 DUP2 AND PUSH2 0x100 DUP2 DUP2 MUL PUSH2 0x100 PUSH1 0x1 PUSH1 0xA8 SHL SUB NOT DUP6 AND OR SWAP1 SWAP5 SSTORE PUSH1 0x40 MLOAD SWAP4 SWAP1 SWAP3 DIV AND SWAP2 DUP3 SWAP1 PUSH32 0x8BE0079C531659141344CD1FD0A4F28419497F9722A3DAAFE3B4186F6B6457E0 SWAP1 PUSH1 0x0 SWAP1 LOG3 POP POP JUMP JUMPDEST PUSH2 0xA4D PUSH2 0xC04 JUMP JUMPDEST PUSH1 0x5 DUP1 SLOAD PUSH1 0xFF NOT AND PUSH1 0x1 OR SWAP1 SSTORE PUSH32 0x62E78CEA01BEE320CD4E420270B5EA74000D11B0C9F74754EBDBFC544B05A258 PUSH2 0x890 CALLER SWAP1 JUMP JUMPDEST PUSH1 0x1 PUSH1 0x1 PUSH1 0xA0 SHL SUB DUP4 AND PUSH2 0xAA8 JUMPI PUSH1 0x40 MLOAD PUSH3 0x461BCD PUSH1 0xE5 SHL DUP2 MSTORE PUSH1 0x4 ADD PUSH2 0x3DD SWAP1 PUSH2 0xDEB JUMP JUMPDEST PUSH1 0x1 PUSH1 0x1 PUSH1 0xA0 SHL SUB DUP3 AND PUSH2 0xACE JUMPI PUSH1 0x40 MLOAD PUSH3 0x461BCD PUSH1 0xE5 SHL DUP2 MSTORE PUSH1 0x4 ADD PUSH2 0x3DD SWAP1 PUSH2 0xE30 JUMP JUMPDEST PUSH2 0xAD9 DUP4 DUP4 DUP4 PUSH2 0xC00 JUMP JUMPDEST PUSH1 0x1 PUSH1 0x1 PUSH1 0xA0 SHL SUB DUP4 AND PUSH1 0x0 SWAP1 DUP2 MSTORE PUSH1 0x20 DUP2 SWAP1 MSTORE PUSH1 0x40 SWAP1 KECCAK256 SLOAD DUP2 DUP2 LT ISZERO PUSH2 0xB51 JUMPI PUSH1 0x40 MLOAD PUSH3 0x461BCD PUSH1 0xE5 SHL DUP2 MSTORE PUSH1 0x20 PUSH1 0x4 DUP3 ADD MSTORE PUSH1 0x26 PUSH1 0x24 DUP3 ADD MSTORE PUSH32 0x45524332303A207472616E7366657220616D6F756E7420657863656564732062 PUSH1 0x44 DUP3 ADD MSTORE PUSH6 0x616C616E6365 PUSH1 0xD0 SHL PUSH1 0x64 DUP3 ADD MSTORE PUSH1 0x84 ADD PUSH2 0x3DD JUMP JUMPDEST PUSH1 0x1 PUSH1 0x1 PUSH1 0xA0 SHL SUB DUP5 DUP2 AND PUSH1 0x0 DUP2 DUP2 MSTORE PUSH1 0x20 DUP2 DUP2 MSTORE PUSH1 0x40 DUP1 DUP4 KECCAK256 DUP8 DUP8 SUB SWAP1 SSTORE SWAP4 DUP8 AND DUP1 DUP4 MSTORE SWAP2 DUP5 SWAP1 KECCAK256 DUP1 SLOAD DUP8 ADD SWAP1 SSTORE SWAP3 MLOAD DUP6 DUP2 MSTORE SWAP1 SWAP3 PUSH32 0xDDF252AD1BE2C89B69C2B068FC378DAA952BA7F163C4A11628F55A4DF523B3EF SWAP2 ADD PUSH1 0x40 MLOAD DUP1 SWAP2 SUB SWAP1 LOG3 PUSH2 0x7C1 JUMP JUMPDEST PUSH1 0x5 SLOAD PUSH1 0xFF AND PUSH2 0x441 JUMPI PUSH1 0x40 MLOAD PUSH3 0x461BCD PUSH1 0xE5 SHL DUP2 MSTORE PUSH1 0x20 PUSH1 0x4 DUP3 ADD MSTORE PUSH1 0x14 PUSH1 0x24 DUP3 ADD MSTORE PUSH20 0x14185D5CD8589B194E881B9BDD081C185D5CD959 PUSH1 0x62 SHL PUSH1 0x44 DUP3 ADD MSTORE PUSH1 0x64 ADD PUSH2 0x3DD JUMP JUMPDEST PUSH2 0x5C4 JUMPDEST PUSH1 0x5 SLOAD PUSH1 0xFF AND ISZERO PUSH2 0x441 JUMPI PUSH1 0x40 MLOAD PUSH3 0x461BCD PUSH1 0xE5 SHL DUP2 MSTORE PUSH1 0x20 PUSH1 0x4 DUP3 ADD MSTORE PUSH1 0x10 PUSH1 0x24 DUP3 ADD MSTORE PUSH16 0x14185D5CD8589B194E881C185D5CD959 PUSH1 0x82 SHL PUSH1 0x44 DUP3 ADD MSTORE PUSH1 0x64 ADD PUSH2 0x3DD JUMP JUMPDEST PUSH1 0x0 PUSH1 0x20 DUP1 DUP4 MSTORE DUP4 MLOAD DUP1 DUP3 DUP6 ADD MSTORE PUSH1 0x0 JUMPDEST DUP2 DUP2 LT ISZERO PUSH2 0xC77 JUMPI DUP6 DUP2 ADD DUP4 ADD MLOAD DUP6 DUP3 ADD PUSH1 0x40 ADD MSTORE DUP3 ADD PUSH2 0xC5B JUMP JUMPDEST POP PUSH1 0x0 PUSH1 0x40 DUP3 DUP7 ADD ADD MSTORE PUSH1 0x40 PUSH1 0x1F NOT PUSH1 0x1F DUP4 ADD AND DUP6 ADD ADD SWAP3 POP POP POP SWAP3 SWAP2 POP POP JUMP JUMPDEST DUP1 CALLDATALOAD PUSH1 0x1 PUSH1 0x1 PUSH1 0xA0 SHL SUB DUP2 AND DUP2 EQ PUSH2 0xCAF JUMPI PUSH1 0x0 DUP1 REVERT JUMPDEST SWAP2 SWAP1 POP JUMP JUMPDEST PUSH1 0x0 DUP1 PUSH1 0x40 DUP4 DUP6 SUB SLT ISZERO PUSH2 0xCC7 JUMPI PUSH1 0x0 DUP1 REVERT JUMPDEST PUSH2 0xCD0 DUP4 PUSH2 0xC98 JUMP JUMPDEST SWAP5 PUSH1 0x20 SWAP4 SWAP1 SWAP4 ADD CALLDATALOAD SWAP4 POP POP POP JUMP JUMPDEST PUSH1 0x0 PUSH1 0x20 DUP3 DUP5 SUB SLT ISZERO PUSH2 0xCF0 JUMPI PUSH1 0x0 DUP1 REVERT JUMPDEST POP CALLDATALOAD SWAP2 SWAP1 POP JUMP JUMPDEST PUSH1 0x0 DUP1 PUSH1 0x0 PUSH1 0x60 DUP5 DUP7 SUB SLT ISZERO PUSH2 0xD0C JUMPI PUSH1 0x0 DUP1 REVERT JUMPDEST PUSH2 0xD15 DUP5 PUSH2 0xC98 JUMP JUMPDEST SWAP3 POP PUSH2 0xD23 PUSH1 0x20 DUP6 ADD PUSH2 0xC98 JUMP JUMPDEST SWAP2 POP PUSH1 0x40 DUP5 ADD CALLDATALOAD SWAP1 POP SWAP3 POP SWAP3 POP SWAP3 JUMP JUMPDEST PUSH1 0x0 PUSH1 0x20 DUP3 DUP5 SUB SLT ISZERO PUSH2 0xD45 JUMPI PUSH1 0x0 DUP1 REVERT JUMPDEST PUSH2 0xD4E DUP3 PUSH2 0xC98 JUMP JUMPDEST SWAP4 SWAP3 POP POP POP JUMP JUMPDEST PUSH1 0x0 DUP1 PUSH1 0x40 DUP4 DUP6 SUB SLT ISZERO PUSH2 0xD68 JUMPI PUSH1 0x0 DUP1 REVERT JUMPDEST PUSH2 0xD71 DUP4 PUSH2 0xC98 JUMP JUMPDEST SWAP2 POP PUSH2 0xD7F PUSH1 0x20 DUP5 ADD PUSH2 0xC98 JUMP JUMPDEST SWAP1 POP SWAP3 POP SWAP3 SWAP1 POP JUMP JUMPDEST PUSH1 0x1 DUP2 DUP2 SHR SWAP1 DUP3 AND DUP1 PUSH2 0xD9C JUMPI PUSH1 0x7F DUP3 AND SWAP2 POP JUMPDEST PUSH1 0x20 DUP3 LT DUP2 SUB PUSH2 0xDBC JUMPI PUSH4 0x4E487B71 PUSH1 0xE0 SHL PUSH1 0x0 MSTORE PUSH1 0x22 PUSH1 0x4 MSTORE PUSH1 0x24 PUSH1 0x0 REVERT JUMPDEST POP SWAP2 SWAP1 POP JUMP JUMPDEST PUSH4 0x4E487B71 PUSH1 0xE0 SHL PUSH1 0x0 MSTORE PUSH1 0x11 PUSH1 0x4 MSTORE PUSH1 0x24 PUSH1 0x0 REVERT JUMPDEST DUP1 DUP3 ADD DUP1 DUP3 GT ISZERO PUSH2 0x377 JUMPI PUSH2 0x377 PUSH2 0xDC2 JUMP JUMPDEST PUSH1 0x20 DUP1 DUP3 MSTORE PUSH1 0x25 SWAP1 DUP3 ADD MSTORE PUSH32 0x45524332303A207472616E736665722066726F6D20746865207A65726F206164 PUSH1 0x40 DUP3 ADD MSTORE PUSH5 0x6472657373 PUSH1 0xD8 SHL PUSH1 0x60 DUP3 ADD MSTORE PUSH1 0x80 ADD SWAP1 JUMP JUMPDEST PUSH1 0x20 DUP1 DUP3 MSTORE PUSH1 0x23 SWAP1 DUP3 ADD MSTORE PUSH32 0x45524332303A207472616E7366657220746F20746865207A65726F2061646472 PUSH1 0x40 DUP3 ADD MSTORE PUSH3 0x657373 PUSH1 0xE8 SHL PUSH1 0x60 DUP3 ADD MSTORE PUSH1 0x80 ADD SWAP1 JUMP JUMPDEST DUP1 DUP3 MUL DUP2 ISZERO DUP3 DUP3 DIV DUP5 EQ OR PUSH2 0x377 JUMPI PUSH2 0x377 PUSH2 0xDC2 JUMP JUMPDEST PUSH1 0x0 DUP3 PUSH2 0xEA7 JUMPI PUSH4 0x4E487B71 PUSH1 0xE0 SHL PUSH1 0x0 MSTORE PUSH1 0x12 PUSH1 0x4 MSTORE PUSH1 0x24 PUSH1 0x0 REVERT JUMPDEST POP DIV SWAP1 JUMP JUMPDEST DUP2 DUP2 SUB DUP2 DUP2 GT ISZERO PUSH2 0x377 JUMPI PUSH2 0x377 PUSH2 0xDC2 JUMP INVALID LOG2 PUSH5 0x6970667358 0x22 SLT KECCAK256 0x21 0x28 0xCD 0xB1 0xB0 0xC4 0xC5 0xC7 PUSH32 0x51C129A10690CC0B6106FE20610C1915332C73364A06C64736F6C6343000811 STOP CALLER "
				},
				"gasEstimates": {
					"creation": {
						"codeDepositCost": "765800",
						"executionCost": "infinite",
						"totalCost": "infinite"
					},
					"external": {
						"allowance(address,address)": "infinite",
						"approve(address,uint256)": "24651",
						"balanceOf(address)": "2563",
						"burn(uint256)": "53015",
						"burnFrom(address,uint256)": "79703",
						"burnRate()": "2383",
						"decimals()": "200",
						"decreaseAllowance(address,uint256)": "26994",
						"increaseAllowance(address,uint256)": "infinite",
						"name()": "infinite",
						"owner()": "2441",
						"pause()": "infinite",
						"paused()": "2415",
						"renounceOwnership()": "infinite",
						"setBurnRate(uint256)": "24618",
						"symbol()": "infinite",
						"totalSupply()": "2349",
						"transfer(address,uint256)": "infinite",
						"transferFrom(address,address,uint256)": "infinite",
						"transferOwnership(address)": "28501",
						"unpause()": "infinite"
					},
					"internal": {
						"_beforeTokenTransfer(address,address,uint256)": "infinite",
						"_transfer(address,address,uint256)": "infinite"
					}
				},
				"methodIdentifiers": {
					"allowance(address,address)": "dd62ed3e",
					"approve(address,uint256)": "095ea7b3",
					"balanceOf(address)": "70a08231",
					"burn(uint256)": "42966c68",
					"burnFrom(address,uint256)": "79cc6790",
					"burnRate()": "bed99850",
					"decimals()": "313ce567",
					"decreaseAllowance(address,uint256)": "a457c2d7",
					"increaseAllowance(address,uint256)": "39509351",
					"name()": "06fdde03",
					"owner()": "8da5cb5b",
					"pause()": "8456cb59",
					"paused()": "5c975abb",
					"renounceOwnership()": "715018a6",
					"setBurnRate(uint256)": "189d165e",
					"symbol()": "95d89b41",
					"totalSupply()": "18160ddd",
					"transfer(address,uint256)": "a9059cbb",
					"transferFrom(address,address,uint256)": "23b872dd",
					"transferOwnership(address)": "f2fde38b",
					"unpause()": "3f4ba83a"
				}
			},
			"storageLayout": {
				"storage": [
					{
						"astId": 388,
						"contract": "contracts/DexToken.sol:DexToken",
						"label": "_balances",
						"offset": 0,
						"slot": "0",
						"type": "t_mapping(t_address,t_uint256)"
					},
					{
						"astId": 394,
						"contract": "contracts/DexToken.sol:DexToken",
						"label": "_allowances",
						"offset": 0,
						"slot": "1",
						"type": "t_mapping(t_address,t_mapping(t_address,t_uint256))"
					},
					{
						"astId": 396,
						"contract": "contracts/DexToken.sol:DexToken",
						"label": "_totalSupply",
						"offset": 0,
						"slot": "2",
						"type": "t_uint256"
					},
					{
						"astId": 398,
						"contract": "contracts/DexToken.sol:DexToken",
						"label": "_name",
						"offset": 0,
						"slot": "3",
						"type": "t_string_storage"
					},
					{
						"astId": 400,
						"contract": "contracts/DexToken.sol:DexToken",
						"label": "_symbol",
						"offset": 0,
						"slot": "4",
						"type": "t_string_storage"
					},
					{
						"astId": 283,
						"contract": "contracts/DexToken.sol:DexToken",
						"label": "_paused",
						"offset": 0,
						"slot": "5",
						"type": "t_bool"
					},
					{
						"astId": 161,
						"contract": "contracts/DexToken.sol:DexToken",
						"label": "_owner",
						"offset": 1,
						"slot": "5",
						"type": "t_address"
					},
					{
						"astId": 15,
						"contract": "contracts/DexToken.sol:DexToken",
						"label": "burnRate",
						"offset": 0,
						"slot": "6",
						"type": "t_uint256"
					}
				],
				"types": {
					"t_address": {
						"encoding": "inplace",
						"label": "address",
						"numberOfBytes": "20"
					},
					"t_bool": {
						"encoding": "inplace",
						"label": "bool",
						"numberOfBytes": "1"
					},
					"t_mapping(t_address,t_mapping(t_address,t_uint256))": {
						"encoding": "mapping",
						"key": "t_address",
						"label": "mapping(address => mapping(address => uint256))",
						"numberOfBytes": "32",
						"value": "t_mapping(t_address,t_uint256)"
					},
					"t_mapping(t_address,t_uint256)": {
						"encoding": "mapping",
						"key": "t_address",
						"label": "mapping(address => uint256)",
						"numberOfBytes": "32",
						"value": "t_uint256"
					},
					"t_string_storage": {
						"encoding": "bytes",
						"label": "string",
						"numberOfBytes": "32"
					},
					"t_uint256": {
						"encoding": "inplace",
						"label": "uint256",
						"numberOfBytes": "32"
					}
				}
			},
			"userdoc": {
				"kind": "user",
				"methods": {},
				"version": 1
			}
		}
	}
}